:1000000000000120393A0000613A0000633A000024
:10001000653A0000673A0000693A000000000000FD
:1000200000000000000000000000000015130000A8
:100030006D3A00000000000035130000713A000026
:100040005D310000733A0000733A0000733A00001B
:10005000733A0000733A000025320000733A000042
:10006000733A0000733A0000733A0000733A0000DC
:10007000733A0000733A0000733A0000733A0000CC
:10008000733A00003D140000733A0000733A000018
:10009000733A0000733A0000733A0000733A0000AC
:1000A000733A0000733A0000733A0000733A00009C
:1000B000733A0000733A00000000000000000000E6
:1000C000733A0000733A0000733A0000733A00007C
:1000D000733A0000733A0000733A00000000000019
:1000E0000000000000000000000000000000000010
:1000F0000000000000000000000000000000000000
:1001000000000000000000000000000000000000EF
:1001100000000000000000000000000000000000DF
:1001200000000000000000000000000000000000CF
:1001300000000000000000000000000000000000BF
:1001400000000000000000000000000000000000AF
:10015000000000000000000000000000000000009F
:10016000000000000000000000000000000000008F
:10017000000000000000000000000000000000007F
:10018000000000000000000000000000000000006F
:10019000000000000000000000000000000000005F
:1001A000000000000000000000000000000000004F
:1001B000000000000000000000000000000000003F
:1001C000000000000000000000000000000000002F
:1001D000000000000000000000000000000000001F
:1001E000000000000000000000000000000000000F
:1001F00000000000000000000000000000000000FF
:1002000010B5054C237833B9044B13B10448AFF350
:1002100000800123237010BD200200200000000098
:10022000CC4100000C4B43B10C480D4910B5AFF365
:1002300000800C48036823B910BD0A48036833B92D
:100240007047094B002BF7D0BDE810401847064B0C
:10025000002BF5D0184700BF00000000CC41000083
:1002600024020020EC01002000000000154B002BB0
:1002700008BF134B9D46A3F5803A00218B460F46DD
:100280001348144A121A03F020FE0F4B002B00D023
:1002900098470E4B002B00D0984700200021040007
:1002A0000D000D48002802D00C48AFF3008003F089
:1002B000BDFD2000290003F071FA03F0A3FD00BF8B
:1002C0000000080000000120000000000000000005
:1002D000200200209C1B0020000000000000000005
:1002E000826802B9704710B5044643690168006925
:1002F00098470023A36010BD0EB400B582B00399E7
:1003000029B102AA04AB42F8043D00F095F802B00E
:100310005DF804EB03B070472DE9F84F1746B9427A
:10032000884606461D46DDF828B00B9A7DD30B465D
:100330004FF00109B3FBF7F39F4209F10109F9D925
:10034000A94538BFA94612F0010A02D1BBF1000F3E
:1003500049D1B268012402E0013D07FB04F4012DFC
:10036000FAD8B8FBF4F18F42F7D9324D05E0B4FB6F
:10037000F7F4A4B1B8FBF4F1B268685C531CB36045
:1003800033689854B26873689A4204FB1188EED3BC
:100390003046FFF7A5FFB4FBF7F4002CEAD1BAF121
:1003A000000F16D0BBF1000F33D0CB4588BF2024FF
:1003B0003ED9B3683268591CB160D454B2687368CE
:1003C0009A420BF1FF3B06D2BBF1000F09D0D94591
:1003D000EFD1BDE8F88F3046FFF782FFBBF1000F89
:1003E000F5D1BDE8F88F93071AD42024CB45B0D9B6
:1003F000B2683368511CB1609C54B26873689A4209
:100400000BF1FF3B07D2BBF1000FA3D0CB45F0D1DE
:10041000A0E7BDE8F88F3046FFF762FFB268F2E769
:10042000002D0CBF30242024E0E74FF0010987E7BE
:10043000BDE8F88F303F0000002900F06F822DE901
:10044000F04F064685B093460C460B780DE0B26837
:100450003168501CB0608B54B26873689A4280F067
:10046000D3802378002B00F0BA800134002B00F0F9
:10047000B680252BEBD14FF00008234614F8012B52
:100480002D2A00F0BB80302A00F0BB802B2A00F020
:10049000AD802A2A00F0BC80A2F13005E9B209291A
:1004A00098BF013302D9A9E1A1F130051C4613F828
:1004B000012BA2F1300005EB8501092802EB410177
:1004C000F2D92E2A00F0B080002701E014F8012FA5
:1004D00002F0FB03682BF9D0253A532A7AD8DFE8DB
:1004E00012F07A01790079007900790079007900B9
:1004F0007900790079007900790079007900790034
:100500007900790079007900790079007900790023
:100510007900790079007900790079007900790013
:100520007900790079007900790079007900790003
:1005300079007900790079007900790079007900F3
:1005400079007900790079006A01790079007900F1
:1005500079007900790079007900790079005501F6
:10056000FC007900790079007900FC0079007900BD
:100570007900790079007900540079007900CA0087
:100580007900BA00790079006A01DBF80020131DB8
:10059000CBF80030B368156831685A1CB2604FF070
:1005A0003002CA54B3687268934280F0A081326806
:1005B000581C7821B060D154B26873689A4280F0B8
:1005C000928100220823019229460093102230468E
:1005D000FFF7A2FE01342378002B7FF446AF337B74
:1005E000002B40F0058105B0BDE8F08F234614F8DC
:1005F000012B2D2A48F004087FF445AF48F001088C
:100600003BE748F0020838E73046FFF769FE28E785
:10061000DBF80020111DCBF8001015685A782E2A3F
:1006200003F101047FF450AF6278A2F13003092B8B
:1006300004F101044FF000073FF64AAF07EB8707CC
:1006400002EB470714F8012FA2F13003092BA7F1A1
:100650003007F3D93CE7DBF800301A1DCBF8002057
:100660001968CDF804803B4600950A223046FFF712
:1006700053FE0134AFE7DBF800301A1DCBF8002041
:1006800018F0010FD3F8009040F0BB80B9F1000FD3
:1006900000F04781484603F028FC0746BD4240F27F
:1006A000F180002D00F0EE804FF0200805E0BD4203
:1006B00000F0E880002D00F0E580B3683268591C36
:1006C000B16002F80380B26873689A4205F1FF35A1
:1006D000EDD33046FFF704FEE9E7DBF800301A1DE2
:1006E000CBF80020D3F8009089EAE973A3EBE97313
:1006F000092B4FF0010A09DD8F4A82FB0312DB1739
:10070000C3EBA203092B0AF1010AF5DCBA4538BF95
:10071000BA462DB3B9F1000F02DB18F0040F00D078
:10072000013D18F0020F40F0F58018F0010F17D1CD
:10073000002D00F0FE80AA4538BF202110D2B268FB
:100740003368501CB0609954B26873689A4205F1DE
:10075000FF3580F0E880002D00F0EB80AA45EED157
:10076000B9F1000FC0F2C88018F0040F7BD108F077
:100770000303022B00F09A808DE820013B46494696
:100780000A223046FFF7C8FD013424E7DBF80020D9
:10079000131DCBF80030B36831681278581CB06074
:1007A000CA54B26873689A42FFF414AF3046FFF738
:1007B00097FD01340FE7DBF800301A1DCBF800205D
:1007C0001968CDF804803B46009510223046FFF7AB
:1007D000A3FD0134FFE6B3683268591CB1604FF0E5
:1007E0002501D154B26873689A42DFD20134F2E62F
:1007F000304605B0BDE8F04FFFF772BD1C4600253E
:100800005FE64F46A7EB090817F8013B8BB1B268CA
:100810003168501CB0608B54B26873689A42F1D34F
:100820003046FFF75DFDA7EB090817F8013B002BE9
:10083000EDD145457FF6CEAE202705E045453FF496
:10084000C9AE002D3FF4C6AEB3683268591CB16022
:10085000D754B26873689A4205F1FF35EED330463B
:10086000FFF73EFDEAE7B2683368501C2B21B06009
:100870009954B26873689A42FFF479AF3046FFF733
:100880002FFD74E709F1FF3919F8013F002B3FF400
:10089000A1AEB2683168501CB0608B54B268736806
:1008A0009A42F1D33046FFF71BFDEDE7002F7FF4AE
:1008B00063AF002D33D0AA45BFF45EAFB268336892
:1008C000511CB1604FF030019954B26873689A427C
:1008D00005F1FF3503D215B3AA45EFD14CE73046F9
:1008E000FFF7FEFCF7E73046FFF7FAFC69E6304613
:1008F000FFF7F6FCB3685AE6B2683368501C2D2146
:10090000B0609954B26873689A42C9F10009FFF463
:100910002EAFB3E7002F3FF423AF06E77047002563
:100920002AE74F46BAE630460391FFF7D9FC039910
:1009300011E7002514E700BF676666660F4B104895
:1009400010B50022FF21C3F8182499601A605A607C
:10095000C3F8142483F81C2402F0C4FA68B90949C6
:10096000094BC91AC90808D0084C02460346A352CD
:100970000133994202F10C02F9D110BD3C02002072
:10098000403F0000F0410000D0410000F001002095
:10099000B9B130B41149124D491BC9080ED0114BE1
:1009A0005A88824218BF002205D114E0DC898442B3
:1009B00003F10C030AD001329142F7D1002030BC80
:1009C0007047074A02EBC0000068704705EBC200A1
:1009D000006830BC70472846FAE700BFF0410000CD
:1009E000D0410000F0010020064B032903EBC000BA
:1009F00005D0042901D14079704700207047007963
:100A0000704700BFD04100002DE9F047794D95E8CF
:100A10001800A34284B000F0A880AE6806EA040083
:100A2000C11C0023C5F8143415F821309A0705EBD2
:100A3000810110D10B884988C3F3891303EB91130B
:100A400001331C4406EA0400C31C05EB830115F8BE
:100A500023309B07EED005EB8000631CC168019139
:100A6000334005EB830301F00301DB6802930229A5
:100A700004F1020461D0BDF804305F48C3F383126F
:100A8000062A28BF0622911C62F389138900ADF85B
:100A9000043002F029FA0746002863D002F06CFA0D
:100AA0000023082201A9384602F09EFABDF804305E
:100AB00013F4707F00F09B804FF000094FF008089E
:100AC00004EA06010331434605EB8101042238465E
:100AD00002F08AFABDF8043009F10109C3F3831367
:100AE00004F1010A4B4508F104085446E8D8434B89
:100AF000002253E8001F01EA020043E8000494F0DA
:100B0000000FF6D1D5F8104454B149B9637A39468B
:100B1000204613B123681B6898476468002CF5D100
:100B2000384602F039FAC5F804A02868B0EB0A008C
:100B300018BF012004B0BDE8F087BDF806302E488C
:100B4000C3F3891ABAF1500FD046A8BF4FF050082E
:100B500068F38F1308F10801ADF8063002F0C4F90C
:100B6000074630B9D5F804A0DFE7002004B0BDE89F
:100B7000F08726EA040909F1010902F0FDF94FEABC
:100B800089090023082201A9384602F02DFAC84538
:100B900022D9B9F1000F0AD1424608231849384634
:100BA00002F022FA0AF1030A04EB9A0A9FE706EA26
:100BB00004010331A8EB090605EB81014A463846DA
:100BC000F6B2082302F010FA324609F108030C4984
:100BD000384602F009FAE5E706EA0401033105EBBD
:100BE000810142460823384602F0FEF9DAE7A246C0
:100BF0007DE700BF3C020020403F0000500600207F
:100C0000480200202DE9F04F564C94F81C6489B03E
:100C100016B109B0BDE8F08FA36802903046039189
:100C2000019302F0F5F894E88800A16800931A4651
:100C3000CB1901339B1A032B57D801F10108A8EBFC
:100C4000020804F5836E04F21445012001EA070945
:100C500009F1030304EB83025EE800CF4CEA000ACB
:100C60004EE800AB9BF0000FF6D155E800CF4CEA00
:100C7000000A45E800AB9BF0000FF6D114F82330D2
:100C80009B07BC4611D113885288C3F3891303EB29
:100C9000921301339C4401EA0C0909F1030304EBAC
:100CA000830214F823309B07EDD004EB89090CF183
:100CB000020CD9F80C30059303F00303022B49D042
:100CC000BDF81430C3F38313634455E8002F02EAE0
:100CD000060C45E800C999F0000FF6D10AB163602F
:100CE0001F4608EB0703032BB0D9009D2B460233A8
:100CF0000020236002F094F8019F029E3B462B40A7
:100D00000333012114F8232061F30102C6F300111B
:100D100061F3820266F3C50204F8232034F823202D
:100D200028466FF3891224F823200246013254F832
:100D30002310039D3A4004EB8202300C65F39F219F
:100D400044F82310D060FFF75FFE0028FBD109B004
:100D5000BDE8F08FBDF81630C3F3891303330CEBF5
:100D6000A303B2E73C02002030B4154DD5F810447F
:100D7000002154B1237A8B4213D0234602E01A7A21
:100D80008A420ED05B68002BF9D10172D5F810347D
:100D90007BB15B684360D5F81034586030BC0846BE
:100DA000704701310A29E4D14FF0FF31084630BCC9
:100DB0007047C5F81004436030BC0846704700BF58
:100DC0003C02002038B5084BD3F81044012583F8C5
:100DD0001C543CB12368657220465B689847646880
:100DE000002CF7D138BD00BF3C020020704700BF87
:100DF00000B583B0044B0093044A402300F020F870
:100E000003B05DF804FB00BF110E00002C070020AA
:100E10008AB1F8B50F4614460A26002522467919EC
:100E2000002002F015FD0544241A08B9013E01D046
:100E3000002CF3D1F8BD7047704700BF02F0CCBD65
:100E4000F0B595B0002415460F4608461E4602F040
:100E500093F8384623460822089505A91A9D099655
:100E60000D950A948DF82C400C9402F0EBF89DF847
:100E70001430079806998DF8104003F00302012AF8
:100E80000290ADF80C102CD0022A04D0384602F0A3
:100E900083F815B0F0BDBDF81650C3F3C202C3F31A
:100EA0008003C5F389158DF80E208DF80F300826C4
:100EB000082D2C4628BF0824334622460EA9384662
:100EC00002F0C0F82D1B214608AB02AA0EA826444A
:100ED00000F0CCF8002DEBD1384602F05DF815B0EB
:100EE000F0BDBDF814500598C5F38315C3F3C20EC9
:100EF000AA000EA9C3F38004C0F395260823384640
:100F00008DF80EE08DF80F4002F09CF808AB0093CE
:100F10002A4630460EA902AB00F010F8B6E700BF33
:100F200010B5054CFFF78AFF20460421FFF71CFF90
:100F30000123637210BD00BF000000202DE9F047BF
:100F400084B01D460C9C002394F80C802373EB792D
:100F500081460E4617460BB3062F0FD8DFE807F081
:100F6000363B414804515E00F168B06896E80C00D9
:100F70000191009049462046FFF7BEF9EB792BB965
:100F80002B7AEBB933492046FFF7B6F92046FFF735
:100F9000A7F984F80C8004B0BDE8F0872B7A002B09
:100FA0004BD1AA792C4BA88853F822A00021FFF737
:100FB000EFFC5246034629492046FFF79DF9CBE74F
:100FC000274A28492046FFF797F9DBE7494620469C
:100FD000FFF792F9D2E7326849462046FFF78CF9CD
:100FE000CCE7494696E80C002046FFF785F9C5E7AF
:100FF000B16896E80C00204600914946FFF77CF95D
:10100000BCE7B068F768316996E80C0002918DE89A
:10101000810049462046FFF76FF9AFE770693169F3
:1010200096E80C000390B068F76802918DE88100A3
:1010300049462046FFF760F9A0E7A979A888FFF79D
:10104000D3FC094B074953F820202046FFF754F9F9
:10105000A7E700BFB43F0000B83F0000A03F00007A
:10106000AC3F00009C3F0000643F000008295DD8B1
:101070002DE9F04F1D46914600232A7B2B7383B048
:1010800099F80730019207460E46002B4FD0DFF843
:101090000CB1DFF80C810024A642414628463DD918
:1010A0003A5D0134FFF728F9082CF5D13449DFF80F
:1010B000F480DFF8F4B02846FFF71EF9002411E0B1
:1010C00017F804A002F0D6FE50445946437813F0B6
:1010D000970F14BF52462E2228460134FFF70CF911
:1010E000082C08D0A64241462846E9D80134FFF72B
:1010F00003F9082CF6D199F8073013B999F808309C
:101100004BBB20492846FFF7F7F82846FFF7E8F8D9
:101110009DF804302B7303B0BDE8F08F01345946BD
:101120002846FFF7E9F8082CB6D1BFE7704799F8D1
:101130000830B3B999F80620134BB9F8040053F8F6
:1011400022400021FFF724FC224603460F4928468F
:10115000FFF7D2F89BE70E4A0E492846FFF7CCF876
:10116000CFE799F80610B9F80400FFF73DFC0A4BE9
:10117000084953F820202846FFF7BEF8DAE700BFF9
:10118000943F0000B43F0000B83F0000A03F0000C3
:10119000AC3F00009C3F0000643F0000903F000017
:1011A000883F0000A83F0000983F0000074B4FF029
:1011B000A041185CD1F804350122824022EA0300E4
:1011C0001340C1F80805C1F80C3570472C400000E9
:1011D00030B44FF0A04303224FF400354FF4802485
:1011E0004FF400204FF48011C3F84427C3F8482778
:1011F000C3F84C27C3F85027C3F80855C3F808456F
:10120000C3F80805C3F8081530BC704738B5430764
:1012100004461CBF20F00704083400F0A9FF0E4A62
:1012200013689BB10D4A156840F6F7712C448C4247
:1012300007D8A54205D21D44146001F043F82846A2
:1012400038BD002501F03EF8284638BD044B23F098
:1012500007031360E6E700BF6C070020701700204B
:1012600078070020704700BF00F108034FF0FF31FE
:101270000022816080E80C00C3600361704700BFFA
:1012800000230361704700BF43684B609A688A601F
:101290009A68516099600861036801330360704780
:1012A00030B40D686B1C11D000F1080200E01A4642
:1012B00053681C68A542FAD24B6099608A605160FD
:1012C000086103680133036030BC704702695368EA
:1012D000F2E700BF426881680369916082684168F3
:1012E00051605A68904204BF82685A6000220261CD
:1012F00018680138186070470548006880F308884E
:1013000062B661B6BFF34F8FBFF36F8F00DF00BFD0
:1013100000000000064B19680868B0E8F04F80F341
:101320000988BFF36F8F4FF0000080F3118870477A
:1013300078170020EFF30980BFF36F8F144B1A6802
:101340001EF0100F08BF20ED108A20E9F04F10604A
:101350004DF8043D4FF0400080F31188BFF34F8FEC
:10136000BFF36F8F01F0F4F84FF0000080F31188A5
:1013700008BC19680868B0E8F04F1EF0100F08BFED
:10138000B0EC108A80F30988BFF36F8F704700BFFD
:1013900078170020402383F31188FEE730B46FF004
:1013A00002034FF08075074C40F8081C40F8202CD1
:1013B00040F8045C40F80C4C40F8243C30BC443805
:1013C000704700BF951300000F4C08B5E02384F868
:1013D000223000F077F80D4B0D4A00211960D4F847
:1013E000883043F47003C4F88830536843F04043B6
:1013F0005360236943F010032361FFF77DFF40230F
:1014000083F31188FEE700BF00ED00E074170020B1
:1014100030EF00E0402383F31188024A1368013360
:101420001360704774170020034A1368013B136070
:101430000BB983F3118870477417002070B51D4BEA
:1014400000221A6082B01B680193019BEFF31186A2
:10145000402383F311881849184BD1F804551A60BA
:101460001B680093009B00F08BFE2D1A25F07F4532
:10147000012D10D901F0C2F9022819D000F08EFE1A
:10148000054625B10E4B4FF080525A6040BF86F39F
:10149000118802B070BD6C1E002DF8D0002500E050
:1014A0001C4600F07BFE631E0543002CF8D1E8E7E4
:1014B0006C1EF3E740110140001001400011014093
:1014C00000ED00E0F8B5002001F00AFE0A4E0B4BDB
:1014D0000B4901221F270225E0244FF40030C3F8F6
:1014E0000875C3F8042332601A60C3F8445381F8C6
:1014F00011430860F8BD00BF081001400010014012
:1015000000E100E0F0B5044685B072B6284DD5F88C
:10151000046501F063F9002841D02648264B844237
:1015200028BF0446321922F07F4201200021C5F86D
:101530000803C5F8402519601B6801934FF48033F8
:10154000019AC5F80433BFF34F8F3CB11B4B20BF4A
:10155000D3F80011D3F804210A43F8D0144A1648EE
:10156000174B164D00214FF48037C2F80873016005
:1015700000680390039819601B6802930123029985
:10158000C2F80433D2F804359B1B23F07F40A042FD
:101590004FF4003328BF2046C5F8803110B962B639
:1015A00005B0F0BD00F0F2FD62B605B0F0BD00BFC1
:1015B00000100140FDFFFF004011014000E100E08C
:1015C0000011014070B506460D4649B300FB01F01D
:1015D0004D30FFF71BFE04464C303CB32060E66301
:1015E0002564FFF717FF236CE16B2268A26001FB03
:1015F00003F1CB1A134400200A444FF0FF31A063DB
:10160000E36061646260A16404F11000FFF72CFEE6
:1016100004F12400FFF728FEFFF706FF204670BD07
:101620004C20FFF7F3FD04460028D7D1002070BD01
:101630002DE9F047044684B01D4601928846FFF725
:10164000E9FEA26BE36BA04F4FF000099A424E46B1
:1016500071D3022D00F0F0800198002800F0518134
:10166000B9F1000F00F0CE80FFF7DEFE00F080FD44
:10167000FFF7D0FE636C013308BF6664A36C0133CF
:1016800008BFA664FFF7D0FE01A902A801F070F818
:10169000002840F0EF80FFF7BDFEA26BE36B9A429B
:1016A00061D0FFF7C1FEFFF7B5FEA36C002B14DD80
:1016B000636A93B104F1240907E0A36C013BA364BE
:1016C000A36C002B09DD636A3BB1484600F0F4FFD0
:1016D0000028F2D001F07CF8EFE74FF0FF33A3646D
:1016E000FFF7A2FEFFF796FE636C002B14DD236963
:1016F00093B104F1100907E0636C013B6364636C10
:10170000002B09DD23693BB1484600F0D5FF0028D6
:10171000F2D001F05DF8EFE74FF0FF336364FFF7BD
:1017200083FE00F0CFFDFFF775FEA26BE36B9A42DC
:101730004FF001098DD2226C002A40F0E980256823
:10174000002D63D0A36B626A0133A3632AB104F155
:10175000240000F0B1FF012864D0FFF765FE0120EE
:1017600004B0BDE8F08704F11009FFF75DFE4846BC
:10177000019900F019FFFFF74DFEA36C002B14DD5B
:10178000636A93B104F1240A07E0A36C013BA364EC
:10179000A36C002B09DD636A3BB1504600F08CFF5F
:1017A0000028F2D001F014F8EFE74FF0FF33A36404
:1017B000FFF73AFEFFF72EFE636C002B06DC0FE00E
:1017C000636C013B6364636C002B09DD23693BB1EF
:1017D000484600F071FF0028F2D000F0F9FFEFE773
:1017E0004FF0FF336364FFF71FFE00F06BFD00282E
:1017F00099D14FF080537B6040BFBFF34F8FBFF351
:101800006F8F90E702A800F0A7FF2DE7606801F056
:1018100051F8A36B626A65600133A363002A96D115
:1018200000289AD0284B4FF080525A6040BFBFF337
:101830004F8FBFF36F8F90E7226C002A3FF47FAF8A
:101840004146E06802F036FB236CE26821685B42A7
:101850001A448A42E26005D262681344E360022DB2
:101860007FF470AFA36B002B3FF46CAFA36B013B15
:10187000A36367E7FFF7CEFDA36C002B14DD636A5B
:1018800093B104F1240507E0A36C013BA364A36CAE
:10189000002B09DD636A3BB1284600F00DFF0028EC
:1018A000F2D000F095FFEFE74FF0FF33A364FFF7AE
:1018B000BBFDFFF7AFFD636C002B17DD2369ABB1F8
:1018C00004F110050AE000BF00ED00E0636C013B8D
:1018D0006364636C002B09DD23693BB1284600F08B
:1018E000EBFE0028F2D000F073FFEFE74FF0FF337C
:1018F0006364FFF799FD00F0E5FC002004B0BDE84B
:10190000F0870090FFF790FD009804B0BDE8F087E5
:1019100041466DB9A06802F0CDFAA368216C6268F7
:101920000B449342A360FFF40DAF2368A36009E763
:10193000E06802F0BFFA236CE26821685B421A4457
:101940008A42E2608BD287E7F0B5044683B0164640
:10195000EFF31185402282F31188806BE26B904295
:101960001AD3022B04D0002085F3118803B0F0BDF8
:10197000226C019312BB2768002F45D0A36B013363
:10198000A363A36C013331D0A36C0133A3640120A2
:1019900085F3118803B0F0BD226C002AEBD0002B38
:1019A00037D1A06802F086FAA368216C62680B4404
:1019B0009342A360E2D32368A360DFE7E06802F00C
:1019C00079FA216CE2682068019B49420A4482420C
:1019D000E26004D262681144E160022BCED1A36BB5
:1019E000002BCBD0A36B013BA363C7E7636A002B3B
:1019F000CDD004F1240000F05FFE0028C7D0002EF7
:101A0000C5D001203060AFE7606800F053FF676029
:101A1000B4E7E068019302F04DFA216CE2682068B7
:101A2000019B49420A448242E260D6D2D2E700BF1B
:101A30002DE9F047044684B09A4688460192FFF7A4
:101A4000E9FCA36BA64E00273D46002B40F09C808E
:101A50000198002800F0F880002F00F0E180FFF7E7
:101A6000E3FC00F085FBFFF7D5FC636C013308BF96
:101A70006564A36C013308BFA564FFF7D5FC01A919
:101A800002A800F075FE002840F0E580FFF7C2FCD8
:101A9000A36B0BB3FFF7C8FCFFF7BCFCA36C002BD8
:101AA00040F39F80636A002B00F09B8004F12409BF
:101AB0000AE0A36C013BA364A36C002B40F391806C
:101AC000636A002B00F08D80484600F0F5FD002889
:101AD000EFD000F07DFEECE7FFF7A6FC2368002BBB
:101AE00000F0AA8004F124094846019900F05CFD49
:101AF000FFF790FCA36C002B06DC0FE0A36C013B0E
:101B0000A364A36C002B09DD636A3BB1484600F077
:101B1000D3FD0028F2D000F05BFEEFE74FF0FF337B
:101B2000A364FFF781FCFFF775FC636C002B14DDE9
:101B3000236993B104F1100907E0636C013B63640E
:101B4000636C002B09DD23693BB1484600F0B4FD0E
:101B50000028F2D000F03CFEEFE74FF0FF33636463
:101B6000FFF762FC00F0AEFB38B94FF080537360B2
:101B700040BFBFF34F8FBFF36F8FFFF74BFCA36BDB
:101B80000127002B3FF464AF226CE5684AB163681B
:101B9000A9189942E16024BF2168E160404602F043
:101BA00089F9BAF1000F40F09D80A36B2268013BD8
:101BB000A363002A00F0A7802369002B00F0958022
:101BC00004F1100000F078FD012840F08E80444BB5
:101BD0004FF080525A6040BFBFF34F8FBFF36F8FFB
:101BE00083E04FF0FF33A364FFF71EFCFFF712FC06
:101BF000636C002B18DD2369B3B104F1100907E011
:101C0000636C013B6364636C002B0DDD23695BB186
:101C1000484600F051FD0028F2D000F0D9FDEFE772
:101C200002A800F099FD1AE74FF0FF336364FFF755
:101C3000FBFB00F047FBA0E7FFF7ECFB606800F060
:101C4000EDFDFFF7F1FB4DE70090FFF7EDFB00988E
:101C500004B0BDE8F087FFF7DDFBA36C002B14DDBB
:101C6000636A93B104F1240507E0A36C013BA3640C
:101C7000A36C002B09DD636A3BB1284600F01CFD14
:101C80000028F2D000F0A4FDEFE74FF0FF33A3648B
:101C9000FFF7CAFBFFF7BEFB636C002B14DD236963
:101CA00093B104F1100507E0636C013B6364636C5E
:101CB000002B09DD23693BB1284600F0FDFC00281C
:101CC000F2D000F085FDEFE74FF0FF336364FFF7DC
:101CD000ABFB00F0F7FA002004B0BDE8F08700BFCE
:101CE00000ED00E0636AE5602BB9FFF79DFB012082
:101CF00004B0BDE8F08704F1240000F0DDFC00280A
:101D00007FF465AFF1E700F017FE606054E700BFB5
:101D1000074B1A681AB19A6802B17047012210B4D1
:101D200003EBC20443F8321060605DF8044BF4E743
:101D30000C1B002038B504460D46FFF76BFB636CA7
:101D4000013304BF00236364A36C013304BF002389
:101D5000A364FFF769FBA36B23B9294604F12400B0
:101D600000F06CFCFFF756FBA36C002B14DD636ADC
:101D700093B104F1240507E0A36C013BA364A36CB9
:101D8000002B09DD636A3BB1284600F095FC002872
:101D9000F2D000F01DFDEFE74FF0FF33A364FFF733
:101DA00043FBFFF737FB636C002B14DD236993B112
:101DB00004F1100507E0636C013B6364636C002B66
:101DC00009DD23693BB1284600F076FC0028F2D0FB
:101DD00000F0FEFCEFE74FF0FF336364BDE83840EE
:101DE000FFF722BB2DE9F84F0C9EDDF828908246C4
:101DF0000F4615469B46002E00F091804820FFF7C5
:101E000005FA0446002800F09580AD002A460663D6
:101E1000A521304602F059F83A78236B84F8342033
:101E2000043D3A781D4425F007053AB17B7884F8E3
:101E300035307B7813B1BB7884F836304F46022FAB
:101E400028BF02274FF00008261DE762A76330462F
:101E500084F83780C4F83C80FFF712FAC7F1030713
:101E600004F11800FFF70CFAC4F84080A761246160
:101E700084F8448064625A4651462846FFF78EFA39
:101E80000B9B206003B11C60FFF7C4FA3F4A404D32
:101E90001368013313602B68002B3AD03D4F3B6829
:101EA00073B3E36ADFF814C1DFF814E13A48DCF8F1
:101EB0000080012404FA03F203EB830300EB8300A8
:101EC000DEF8003042EA080223443146CEF8003002
:101ED000CCF80020FFF7D8F9FFF7A6FA3B68ABB1C2
:101EE0002B68DB6A994511D92C4B4FF080525A6010
:101EF00040BFBFF34F8FBFF36F8F2046BDE8F88F11
:101F00002B68DB6A994528BF2C60CAE72046BDE8EC
:101F1000F88F2C601368012B13D01E4FC1E790007F
:101F2000FFF774F9064600287FF468AF4FF0FF30E2
:101F3000BDE8F88F3046FFF795F94FF0FF30BDE868
:101F4000F88F1548DFF87CA0DFF87C80114FFFF791
:101F50008BF91348FFF788F91248FFF785F95046C7
:101F6000FFF782F94046FFF77FF90F48FFF77CF94A
:101F70000E48FFF779F90E48FFF776F90D4A0E4B38
:101F8000C2F800A0C3F800808BE700BFC017002094
:101F9000781700201C1800208417002000ED00E0B6
:101FA00098170020AC1700200818002034180020D3
:101FB000201800207C17002080170020D417002054
:101FC000CC170020D8170020EC1700202DE9F8438B
:101FD000F020FFF71BF9002875D005464820FFF7D1
:101FE00015F90446002876D00563F0222846A5217D
:101FF00001F06BFF206B4C4E0025492144224C23FD
:10200000271D84F8341084F8352084F8363000F128
:10201000EC0884F837503846E562A563E563FFF7BE
:102020002FF904F11800FFF72BF928F00708032314
:102030002A462564A3613D4984F844504046246102
:102040006462FFF7ABF93A4B20601C60FFF7E2F9DE
:10205000384A1368013313603368002B35D0364D8E
:102060002B681BB93368DB6A03B93460E26ADFF8B6
:10207000F0C0DFF8F0E03148DCF800400123934085
:1020800002EB820200EB8200DEF8002023430132E3
:102090003946CCF80030CEF80020FFF7F5F8FFF70E
:1020A000C3F92B6803B1336800F052FC01280AD150
:1020B000402383F31188224B286000221A60BDE878
:1020C000F843FFF781B9BDE8F88334601368012B4A
:1020D00006D0194DCAE72846BDE8F843FFF7C2B855
:1020E0001648DFF88490DFF88480134DFFF7BCF8C2
:1020F0001448FFF7B9F81448FFF7B6F84846FFF759
:10210000B3F84046FFF7B0F81048FFF7ADF81048B5
:10211000FFF7AAF80F48FFF7A7F80F4A0F4BC2F8CE
:102120000090C3F80080A1E7781700205D2400002C
:1021300000180020C01700201C1800208417002061
:102140004818002098170020AC170020081800201D
:1021500034180020201800207C1700208017002051
:10216000D4170020CC170020D8170020EC1700202F
:10217000024A136801331360704700BFC81700207C
:10218000014B1868704700BF48180020024A1368C6
:1021900018441060704700BF481800202DE9F04F28
:1021A0003D4B1B6883B0002B43D13C4B1A68013276
:1021B0001A60D3F80080B8F1000F48D0384B019373
:1021C0001B6898455AD3374E374FDFF8F0A0DFF839
:1021D000F090002524E03368DB68DC68636804F174
:1021E000040B9845584654D3FFF774F8A36A04F1DA
:1021F00018000BB1FFF76EF8E06A3A6801238340DC
:1022000000EB8000134359460AEB80003B60FFF768
:102210003BF8D9F80030E26ADB6A9A4228BF012510
:1022200033681B68002BD6D1019A4FF0FF3313603F
:1022300004E01E4A13680133136000251C4B1B6821
:10224000002B18BF0125284603B0BDE8F08F154EBE
:10225000184B3168184A18683060196013680133E8
:10226000136033681B685BB90D4B01931A464FF03E
:10227000FF33136013461B689845A4D20025DDE7A1
:102280003368074ADB680192DB685B6813601346BA
:1022900096E7019A1360D1E7C8170020481800207C
:1022A0000C0000207C170020D4170020C417002049
:1022B0004C180020801700200418002084170020EC
:1022C000781700202DE9F84FFFF7A4F8324B1A6871
:1022D000013A1A601B68002B49D1304B1B68002B58
:1022E00045D0DFF8CC90DFF8CCB02D4DDFF8C880BA
:1022F0002C4F012622E0DBF80C30D3F80CA00AF1B9
:1023000004040AF11800FEF7E5FF2046FEF7E2FF9D
:10231000DAF82C002A6806FA00F300EB8000134379
:10232000214608EB80002B60FEF7AEFF3B68DAF831
:102330002C20DB6A9A4228BFC9F80060DBF8003025
:10234000002BD8D1184C23686BB123685BB10125F1
:10235000FFF724FF08B1C9F800502368013B236050
:102360002368002BF4D1D9F80040012C05D00024BB
:10237000FFF75AF82046BDE8F88F0C4B4FF080521B
:102380005A6040BFBFF34F8FBFF36F8FFFF74CF81A
:102390002046BDE8F88F00BFC8170020C0170020F6
:1023A000D417002078170020C417002000ED00E0AB
:1023B0004C180020081800208417002070B548B978
:1023C0001E4B4FF080525A6040BFBFF34F8FBFF398
:1023D0006F8F70BD1A4A1B4E13681B4D013313607B
:1023E00004463368286804301C44FEF773FF40B984
:1023F0002B681649D86A0B680122824023EA02033F
:102400000B602A68336854609C420FD3104B1868E5
:1024100029680431FEF744FF0E4B1A68944238BF16
:102420001C60FFF74FFF0028CAD070BD0A4B186828
:1024300029680431FEF734FFF3E700BF00ED00E048
:10244000C81700204818002078170020D417002053
:102450007C1700200C000020801700202DE9F84F89
:10246000324C334E334DDFF8DC80DFF8DC90DFF8A0
:10247000DCB007E02368376801332360FFF722FFF1
:10248000002F32D12B68002BF4D1D8F80030012B6B
:1024900045D9294B4FF080525A6040BFBFF34F8F50
:1024A000BFF36F8FD9F80030DB6A002BEAD1D8F880
:1024B0000030012BE6D8214ADBF8003012689B1A65
:1024C000012BDFD9236801332360D9F80030DB6AA0
:1024D00043B91A4BDBF800001B68C01A012801D968
:1024E000FFF710F8FFF7EEFECCE7FEF793FFF36877
:1024F000D3F80CA00AF10400FEF7ECFE104B1A68AA
:10250000013A1A602A68013A2A60FEF78DFFDAF86C
:102510003000FEF7A7FE5046FEF7A4FEB2E7D9F85A
:102520000030DB6A002BC6D0ACE700BFC817002024
:1025300034180020D017002000ED00E048180020DB
:10254000C017002084170020781700200C000020FE
:10255000104B1B68CBB91049104A0B601368104A26
:10256000B3FA83F3C3F11F0303EB83039B00D0187B
:1025700008334168496841601344994204BF49687F
:102580004160084BCA681A607047034B01221A6009
:10259000704700BFC81700204C180020D417002037
:1025A000841700207817002038B51D4D2B680C4685
:1025B00003F11801FEF774FE28680430FEF78AFE66
:1025C00040B92B681749D86A0B680122824023EA78
:1025D00002030B60631C1BD0134B19682A681B682D
:1025E0000C449C4254600BD3104B1868296804318A
:1025F000FEF756FE0E4B1A68944238BF1C6038BD79
:102600000C4B18682968BDE838400431FEF748BE15
:10261000296809480431BDE83840FEF735BE00BFDF
:1026200078170020D4170020481800207C170020BD
:102630000C000020801700202018002070B5184DD5
:102640002B680E4603F11801FEF71EFE28680430C1
:10265000FEF740FE40B92B681249D86A0B68012288
:10266000824023EA02030B600F4B1C682A681B6838
:1026700034449C4254600BD30C4B186829680431D5
:10268000FEF70EFE0A4B1A68944238BF1C6070BDFC
:10269000084B18682968BDE870400431FEF700BE99
:1026A00078170020D4170020481800207C1700203D
:1026B0000C00002080170020F8B5C368DC6804F126
:1026C00018052846FEF706FE1B4B1B68002B2DD174
:1026D000261D1A4D3046FEF7FDFDE26A2F681848A8
:1026E0000123934002EB82023B43314600EB820020
:1026F0002B60FEF7C9FD134BE26A1B68DB6A9A4246
:1027000082BF114B01201860104B1A68126898BFE5
:10271000002032B11A680E4BD268D26852681A6033
:10272000F8BD0B4B4FF0FF321A60F8BD294609483F
:10273000FEF7AAFDDFE700BFC8170020D41700206E
:1027400084170020781700204C1800207C170020E8
:102750000C00002008180020034A044B12681B6874
:1027600080E80C00704700BF0418002048180020C3
:10277000F8B50D460446FEF74DFE2B681249581C6D
:102780000A681BD0114E276830688742606801D004
:1027900082420ED2171ABB420BD99B1A03443068EF
:1027A0000A682B6084E805000025FEF73DFE2846F8
:1027B000F8BD0125FEF738FE2846F8BD0025FEF7D6
:1027C00033FE2846F8BD00BF48180020041800203A
:1027D000014B01221A6070474C180020054B1B6802
:1027E0002BB9054B1868B0FA80F0400970470020FB
:1027F000704700BF081800204C180020054B1B68CC
:1028000033B1054B1B68002B0CBF02200020704722
:10281000012070471C180020C8170020002841D054
:10282000F8B5214CC36A2268D26A934212D28269F7
:10283000002A04DB2268D26AC2F1030282611B4DC6
:10284000426903EB830305EB83039A4203D02368B9
:10285000DB6AC362F8BD071D06463846FEF73AFD3F
:10286000F0B9F36A03EB830255F82220C2B9104A8B
:102870000120116800FA03F321EA030313602368BF
:102880001468D86AF06201238340234300EB800080
:102890001360394605EB8000BDE8F840FEF7F4BC54
:1028A000034AECE7704700BF781700208417002028
:1028B000D4170020002839D0F8B5C36BC16A826BE9
:1028C000013B9142C36300D00BB10020F8BD071D4E
:1028D00004463846FEF7FEFC78B9E36A1448154E04
:1028E00003EB830250F822204AB93268012101FA31
:1028F00003F322EA0303336001E00D480D4EA36B9E
:10290000D6F800C0E3620125C3F1030E05FA03F215
:1029100003EB830342EA0C0200EB83003946C4F860
:1029200018E03260FEF7B0FC2846F8BD0020704782
:1029300084170020D4170020044B1A681AB11968B4
:10294000CA6B0132CA631868704700BF781700204D
:10295000F0B5184C85B0FEF75DFD25688DB1FEF72A
:1029600063FD206858B100231349019102220092AF
:1029700003930293502211491148FFF733FA05B02F
:10298000F0BD104F104E3846FEF76EFC3046FEF795
:102990006BFC0E4A0E4B176010212A4620201E6049
:1029A000FEF710FE20600028D9D00A49FFF7B0F9E1
:1029B000D5E700BF841800208818002038400000A8
:1029C000D92A0000581800206C1800205018002048
:1029D00054180020304000002DE9F04F83B0F9B1C9
:1029E000064628200D4698461746FEF70FFC04467B
:1029F000B0B1DFF88090FEF70DFDD9F80020A2B14C
:102A0000FEF712FD0C9B2660201DA561E761C4F84E
:102A100020806362FEF734FC204603B0BDE8F08FEF
:102A20000024204603B0BDE8F08FDFF84CB0DFF89B
:102A30004CA001925846FEF717FC5046FEF714FCD6
:102A400009490A4BC1F800B0019AC3F800A010214F
:102A50002020FEF7B7FDC9F800000028D0D00449B7
:102A6000FFF756F9CCE700BF50180020541800209B
:102A70003040000084180020581800206C180020F6
:102A800030B5144D2C6885B004B305298DE80600D7
:102A900002900BDCFFF7B2FE02280FD0002328685B
:102AA0001A466946FEF7C4FD05B030BD1A462046F9
:102AB00000236946FEF748FF05B030BD2868089A34
:102AC00000236946FEF7B4FD05B030BD204605B0D1
:102AD00030BD00BF841800202DE9F04FA54EDFF86F
:102AE000A482A54D8BB033681C68002C00F08C804C
:102AF000DB681C68FFF73CFBFFF742FBD8F80030AF
:102B00008342074651D88442C8F8000040F29E80B4
:102B1000E11B2868FFF70EF9FFF7D4FB40B9974B8C
:102B20004FF080525A6040BFBFF34F8FBFF36F8F9B
:102B300000231A4602A92868FEF77AFF0028D2D09F
:102B4000029B002B58DB049C636913B1201DFEF728
:102B5000C1FBFFF715FBD8F800309842814641D3FE
:102B6000029BC8F80090092BE2D8012202FA03F375
:102B700013F4047F40F0CA8013F0C70F40F0AA801E
:102B80009B06D5D52046FEF76DFBD1E7DB68DC68F8
:102B9000D3F800A004F104094846FEF79BFB636AE2
:102BA00020469847E369012B3AD033681A68002A17
:102BB000ECD1734AC8F8007012683260704A136032
:102BC000FFF780FBB4E7DB68DF68D3F800B007F1FC
:102BD000040A5046FEF77EFB7B6A38469847FB693D
:102BE000012B28D033681A68002AECD1644A126895
:102BF0003260634A1360B3E7039B059904989847D2
:102C0000029B002B94DB9EE7FFF7B2FAFFF7B8FABE
:102C1000D8F8003083420746C7D8C8F8007077E775
:102C2000A36953449A45494624D2636024613068BD
:102C3000FEF736FBB9E7BB695B449B4551462AD298
:102C40007B603F613068FEF72BFBCBE7FFF73AFB79
:102C50003368DB68D3F80C9009F1040A5046FEF79C
:102C600039FBD9F81C30012B26D0D9F8243048463E
:102C700098475DE72B68002B97D000230693CDF88B
:102C80001CA00894FFF7BAFD00231A4606A928687D
:102C9000FEF7CEFC89E72B68002BA3D00023069318
:102CA000CDF81CB00897FFF7A9FD00231A4606A926
:102CB0002868FEF7BDFC95E7D9F81830C9F81090E0
:102CC000E218BA42C9F8042031D951463068FEF7FB
:102CD000E7FACAE7039BA16924615A184A45626072
:102CE00039D8A9EB030399421BD8636A2046984759
:102CF000E369012B7FF41CAF0399A26900230A4406
:102D0000009320461946FFF7BBFE11E7039B2461A1
:102D100003EB09024A45A361626020D8002B3FF40F
:102D200007AF174B211D1868FEF7BAFA00E73F1BE3
:102D3000BB4219D82B68002B97D000230693079429
:102D4000CDF82090FFF75AFD00231A4606A92868FF
:102D5000FEF76EFC89E74B4501D99342C5D9211D89
:102D60003068FEF79DFAE3E6054B51461868FEF71A
:102D700097FA7AE7501800208418002000ED00E050
:102D8000541800208018002000B585B0002303905F
:102D9000194601AA44F20100ADF80430029300F094
:102DA00003F805B05DF804FB10B5134C13492088F7
:102DB000000440F00100FDF725FFFEF703F8FDF7E2
:102DC00023FE0028FBD10E4B1B68DB0700D5FFDE7E
:102DD00020880C49000440F00300FDF713FFBFF307
:102DE0004F8F0949094BCA6802F4E0621343CB6074
:102DF000BFF34F8F00BFFDE7F0010020404000000F
:102E0000F0ED00E04840000000ED00E00400FA05AD
:102E100072B6024A13680133136070478C180020A1
:102E2000034A1368013B136003B962B6704700BFE1
:102E30008C180020B8B130B4416882680468521A16
:102E4000D2B2531E2160DBB242B101680A685C1E37
:102E5000551C0D601370E3B2FF2BF6D10368002000
:102E6000187130BC70470E20704700BF70B5044623
:102E70000020FFF7CDFF236861681A688A4215D9E0
:102E8000511E19602168A3680D680879268A12F816
:102E9000012CE4685B1BDBB2984206FB024400D2C3
:102EA0000B710020FFF7BCFF204670BD00240020FE
:102EB000FFF7B6FF204670BD38B5054600200C462A
:102EC000FFF7A6FF2A681368591C1160E9682A8A6F
:102ED000641AB4FBF2F41C700020BDE83840FFF720
:102EE0009FBF00BFFFF7A6BF2DE9F041B0F81080EB
:102EF000CF1CA8F1040847440646B7FBF8F7FFF7D4
:102F0000B5FF80B3FFB200250123013F0446A0F8BE
:102F1000068006600571437128D0804609E0637918
:102F2000AF4203F101036371C8F8000006608046F8
:102F30001CD03046FFF79AFF01350028EFD16679A3
:102F4000721E16D02346013082421B68FBD81F68D0
:102F50004EB1214600250C6801353846FFF7ACFF1D
:102F6000AE422146F7D10020BDE8F0812046BDE801
:102F7000F0812768EDE700BF10B40430012350E86A
:102F8000002F02EB030140E8001494F0000FF6D18B
:102F90005DF8044B704700BFF8B5021D012152E8EF
:102FA000004FA4EB010342E8003595F0000FF6D185
:102FB00013F0FF0300D0F8BD4579691E12D0024618
:102FC000013399421268FBD81768002DF3D00146EF
:102FD00000240E6801343846FFF76EFFA5423146E3
:102FE000F7D1F8BD0768F2E72DE9F843C688043346
:102FF0000F46B3FBF6F5904606FB1533044615B1B4
:10300000013D2468FCD1F51A454528BF4546B8F175
:10301000000F15D04FF000090433E018A8EB0508A5
:103020002A4607EB090100F045FF4645A9442468FC
:1030300035464FF0000328BF4546B8F1000FEBD1ED
:10304000BDE8F8832DE9F843C68804330F46B3FB87
:10305000F6F5904606FB1531044615B1013D24688E
:10306000FCD1751A454528BF4546B8F1000F15D06B
:103070004FF0000904312144A8EB05082A4607EB6C
:10308000090000F017FF4645A944246835464FF073
:10309000000128BF4546B8F1000FEBD1BDE8F88329
:1030A00010B50D4C23780BB1852010BD0B4A636021
:1030B000E3601068A36010F00100236107D04FF0B7
:1030C00080420123C2F818352370002010BD07216B
:1030D00000F080F8F3E700BF9018002000E100E066
:1030E00030B51B4DAB7883B0044673B110B1436863
:1030F000012098470020FFF78BFEEB68002001338A
:10310000EB60FFF78DFE03B030BD03F0FF00FFF76B
:103110007FFE64B12A6942B1944208D0134601E0AF
:103120009C4204D01B68002BFAD122602C61EB6812
:10313000002BE2D1074A08491360136801934FF04E
:10314000804202200123019CC2F804030B60D4E7F3
:1031500090180020040100400800004010B51A4BF0
:103160001A6882B0A2B100221A601B6800934FF067
:1031700080430122154C0099C3F80823A3686270AC
:1031800033B10CCB0020A2609847A368002BF8D184
:103190000F4B1A68AAB100221A601B6801934FF006
:1031A00080430222094C0199C3F8082323690122B4
:1031B000A27033B10CCB0120226198472369002B08
:1031C000F8D102B010BD00BF0001004090180020EF
:1031D00004010040002810B418DB00F1604303F53F
:1031E00061434901C9B283F80013C3B240098000AA
:1031F00000F1604000F5614003F01F02012393409D
:10320000C0F8803103605DF8044B7047C3B2044AD4
:1032100003F00F0449012244C9B21176E6E700BF6A
:10322000FCEC00E02DE9F04F87B00023CC4A01937D
:103230001168012900F00A821E46CA4B1A68012A49
:1032400000F0F681C84B1A68012A00F0E381C74BF1
:103250001A68012A00F0D081C54B1A68012A00F0D3
:10326000BD81C44B1A68012A00F0AA81C24B1A68BA
:10327000012A00F09781C14B1A68012A00F084816D
:10328000BF4B1A68012A00F05E8116F0FF0F1AD0BA
:10329000BC4F01250024A30003F180432E4203F517
:1032A000C0434FEA45050BD0D3F8100557F824204A
:1032B000D3F81015C0F30420C1F3014102B19047C7
:1032C0000134082CE7D1002E02DB07B0BDE8F08FF7
:1032D00000224FF0FF33AB4C02920393012502AE64
:1032E00094F950104F1C2DD0C9B221F0C00006AB8C
:1032F0004FEAD00E03EB0E0701F0070317F80C2C72
:1033000005FA03F31A421DD02218890992F93020D8
:1033100054F82220002A00F0F080032900F0F08009
:103320004FEA800E0EF1A04E17F814CCDEF80077AD
:103330001CEA0303C7F3014940F0B880B9F1030F59
:1033400000F0D7814FF0030A4FF002094FF0010857
:10335000002794F95110481C2DD0C9B221F0C000AB
:1033600006AB4FEAD00C03EB0C0E01F007031EF87E
:103370000C2C05FA03F31A421DD02218890992F980
:10338000302054F82220002A00F0CA80032900F0DF
:10339000CA804FEA800C0CF1A04C1EF814BCDCF87B
:1033A00000E71BEA030FCEF3014E40F09080BEF120
:1033B000030F00F08A8194F952104A1C2CD0C9B234
:1033C00021F0C00006AB4FEAD00C03EB0C0E01F06D
:1033D00007031EF80C2C05FA03F31A421CD022181E
:1033E000890992F9302054F82220002A00F08F80B9
:1033F000032900F08E804FEA800C0CF1A04C1EF8DF
:1034000014ACDCF800E71AEA030FCEF3014E6AD1E0
:10341000BEF1030F00F0468194F953104B1C2CD0E1
:10342000C9B221F0C00006AB4FEAD00E03EB0E028A
:1034300001F0070312F80CCC05FA03F31CEA030FA2
:103440001BD004EB000C89099CF930C054F82C9077
:10345000B9F1000F6ED003296ED04FEA800E0EF145
:10346000A04E12F814CCDEF800271CEA030FC2F3BA
:10347000014211D1032A00F0F580002F3FF425AF5F
:103480004FF0A043019AD3F810359A423FF41DAF94
:10349000029A0193039223E7022AEED1032900F056
:1034A0004681B9F1000FE8D0C847E6E7B9F1020F4D
:1034B0007FF448AF032900F043814FF0030A4FF037
:1034C00001080027002A3FF444AF904741E7BEF1CE
:1034D000020F7FF470AF032900F02C81002A3FF423
:1034E0006AAF904767E7BEF1020F95D1032900F05C
:1034F0002481002A90D090478EE703297FF422AFE1
:1035000016F80EC04CEA030C06F80EC008E70329B3
:1035100082D116F80CA04AEA030A06F80CA06AE762
:1035200003297FF448AF16F80CB04BEA030B06F8FA
:103530000CB02EE70329A0D116F80EC04CEA030CFC
:1035400006F80EC089E700221A601B6805934FF049
:10355000A043059AD3F81035019346F0004694E64F
:103560000061004004610040086100400C610040BF
:103570001061004014610040186100401C6100406F
:103580007C610040A41800206F4AD2F80423120680
:103590007FF576AE00221A601B680493049B46F008
:1035A00080066DE6684AD2F8042351067FF563AEC3
:1035B00000221A601B680493049B46F040065AE6FA
:1035C000614AD2F8042390067FF550AE00221A60BB
:1035D0001B680493049B46F0200647E65A4AD2F83B
:1035E0000423D4067FF53DAE00221A601B680493C5
:1035F000049B46F0100634E6534AD2F8042315071C
:103600007FF52AAE00221A601B680493049B46F0E3
:10361000080621E64C4AD2F8042357077FF517AE77
:1036200000221A601B680493049B46F004060EE611
:10363000454AD2F8042392077FF504AE00221A60AF
:103640001B680493049B46F00206FBE53E49D1F853
:10365000046316F001063FF4F0AD136013680493A1
:10366000049BEAE503297FF41CAF4FF40032DEF837
:10367000003723F44033CEF80037DEF80037134329
:10368000CEF80037B9F1000F01D047460CE74FF0F4
:10369000A043019AD3F8103593427FF4F9AE07B0F6
:1036A000BDE8F08F03297FF424AF4FF40037DCF836
:1036B000003723F44033CCF80037DCF800373B43C5
:1036C000CCF800374746C84613E703297FF406AF16
:1036D0004FF40037DCF8003723F44033CCF80037E0
:1036E000DCF800373B43CCF800374746C846D146A4
:1036F000F4E6032906D0CA461F464FF002094FF0F0
:103700000108DFE64FF40037DEF8003723F44033DA
:10371000CEF80037DEF800373B43CEF800374FF0E5
:10372000040A4FF003094FF002080127CAE64FF4DC
:1037300040329CE74FF44037CCE74FF44037B6E7D0
:103740004FF44037E0E700BF0060004008B5064B8B
:1037500006491888000440F00300FDF753FA0120E1
:10376000BDE80840FDF722BDF00100207C400000CC
:1037700008B5084D084C0020FDF718FD2888000406
:1037800040F003002146FDF73DFAC820FEF716FE83
:10379000F1E700BFF00100207440000030B50020C8
:1037A00085B0FDF7CBF800283CD1FDF7B9FB1F4BE6
:1037B0001F491888000440F00300FDF723FAFFF7C3
:1037C0006FFC60BBFDF704FD00241A490191022241
:1037D00023460092184903944FF4827202941748CA
:1037E000FEF700FB164B009301224FF47A7123463B
:1037F0001448FFF7F1F8144B05461860FEF7C0FCBB
:1038000023460246009428460121FFF739F90F4A62
:10381000136943F004031361FEF7D8FBFEE7FFF7DB
:10382000B3FACFE7FFF7B0FABFE700BFF00100201F
:1038300084400000201B00209440000071370000ED
:103840004D3700009C4000001C1B002000ED00E0F4
:103850002DE9F84F4400DFF87CA126180AEBC606D4
:103860008146D6F82C80B8F1010F8B46174661D0FF
:1038700038D3B8F1020F30D100F1010909EB490941
:10388000756A4FEAC9094FF000081CE0326A641BF0
:10389000BC420AEB09012346A2EB050428BF3B46C4
:1038A0009C42486828BF1C4628445946224600F0DE
:1038B00001FB336A25449D4208BF00253F1BA044FD
:1038C000A34475620BD0B36AAB4203F1FF34DDD879
:1038D000326A1344013B5C1BDAE74FF000084046B4
:1038E000BDE8F88FB36A756AAB429CBF326A9B1819
:1038F000013B5B1B9F42F2D804440AEBC40400F175
:103900000109266A761B09EB4909B7420AEBC90A85
:1039100056D3DAF8040032462844BD1B00F0CAFA38
:10392000DAF804000BEB06012A4600F0C3FAB846A9
:103930006562D4E7B36A756AAB4226D903F1FF38F2
:10394000366AA8EB0508B84528BFB846761BB045CF
:1039500023D309F1010707EB47070AEBC707A14487
:1039600078683246594628440AEBC90AA8EB06058E
:1039700000F0A0FA78680BEB06012A4600F09AFAEC
:10398000CAF824504046BDE8F88F366A03EB0608B3
:1039900008F1FF38A8EB0508D5E709F1010303EBAF
:1039A00043030AEBC303A14458680AEBC90A28443D
:1039B00059464246454400F07DFACAF824508EE745
:1039C000DAF804003A4628443D4400F073FAB84659
:1039D000656284E7241B0020F8B5114C114B124A94
:1039E000E3614FF400750023104FA3621026636259
:1039F000E362A3656365E3650D492562A261022563
:103A0000A264E01DE76426652561656100F065FA42
:103A10002046084900F061FA2023A371F8BD00BFD9
:103A2000241B00200C190020A4400000FC180020DA
:103A3000B0400000B44000000649074A074B9B1AFB
:103A400003DD043BC858D050FBDC00F013F8FCF752
:103A50000DFC0000F84100000000002020020020C2
:103A6000FEE7FEE7FEE7FEE7FEE7FEE7FEE7FEE72E
:103A7000FEE7FEE7F0B4B24B1A78062A1BD0B14A33
:103A8000D2F8883043F47003C2F88830BFF34F8F08
:103A9000BFF36F8F4FF01023D3F80022002AC0F23B
:103AA0007981D3F80432002BC0F27481A64BA74A67
:103AB0001A60F0BC704704331B681807DFD1A44BB1
:103AC0001B6803F0F002302A00F0298103F0E003C4
:103AD000402B00F024819E4B1B6803F0F003302B39
:103AE00000F00F819A4B1B6803F0F002302A00F0BF
:103AF000F88003F0E003402B00F0F380944B1B6848
:103B000003F0F003302B00F0DC80914B1B6803F0D6
:103B1000F002302A00F0C18003F0E003402B00F0F7
:103B2000BC808B4B1B6803F0F003302B00F0A780A8
:103B3000874B1B6803F0F003302B00F08980844B27
:103B40001B6803F0F003502B30D0814B1B6803F04F
:103B5000F002302A19D003F0E003402B15D07C4B43
:103B60001B6803F0F002302A03D003F0E003402B7F
:103B700085D14FF08043D3F80024D2077FF57FAF83
:103B80006FF00102C3F8002479E7724B724A1B6898
:103B900003F04F0313606A4B1B78062B7FF46FAF63
:103BA0006E4B1B6818077FF46AAFD8E74FF080525E
:103BB0006B4BD2F80414C3F82015D2F80814C3F8DC
:103BC0002415D2F80C14C3F82815D2F81014C3F831
:103BD0002C15D2F81414C3F83015D2F81814C3F801
:103BE0003415D2F81C14C3F84015D2F82014C3F8C9
:103BF0004415D2F82414C3F84815D2F82814C3F891
:103C00004C15D2F82C14C3F85015D2F83014C3F860
:103C10005415D2F83414C3F86015D2F83814C3F828
:103C20006415D2F83C14C3F86815D2F8401444481F
:103C3000C3F86C15D2F844140278C3F87015062A3C
:103C40007FF41DAF454B1B681C077FF418AF7CE762
:103C5000444E454C4549464B0527012500203F224F
:103C60003760256008601A60354B1B78062B7FF49F
:103C700006AF3A4B1B681D077FF401AF5FE7304B7F
:103C80003C4A1B780321062B11607FF4F8AE334BBE
:103C90001B681E077FF4F3AE4AE74FF08043002213
:103CA000C3F80C21C3F81021C3F83825244B1B7826
:103CB000062B7FF470AF294B1B681F077FF4DFAE24
:103CC0002FE72D491E4ACB68127823F08073062A0D
:103CD000CB607FF4D4AE214B1B681B077FF4CFAEC3
:103CE00013E7264B164A1B6812782549C3F3423363
:103CF000062A0B60B8D1194B1B681A077FF4BFAEB8
:103D0000FCE60F4B1F4A1B781F491160062B7FF4FE
:103D1000B6AE124B1B6819077FF4B1AEE2E61B4B3F
:103D2000074A1B6812781A49C3F30423062A0B605A
:103D3000BCD10A4B1B6819073FF4CDAE9FE600BF0C
:103D4000E00F00F000ED00E0100000200090D00334
:103D5000E80F00F058020010E40E0040E40F00F0FD
:103D600000C00040105600408856004018560040E1
:103D700014560040A0050040F0ED00E044020010A1
:103D80003C05004074C007400DF0ADBA240300109C
:103D900040350140184B0122C3F80425D3F8002414
:103DA000002AFBD04FF0102315221349C3F800223C
:103DB000D1F80034002BFBD04FF0102215210E4B10
:103DC000C2F80412D3F80024002AFBD000220A49CA
:103DD000C3F80425D1F80034002BFBD0BFF34F8F7C
:103DE0000649074BCA6802F4E0621343CB60BFF395
:103DF0004F8F00BFFDE700BF00E0014000ED00E095
:103E00000400FA0508B5074B044613B10021AFF3CF
:103E10000080054B1868836A03B19847204600F07C
:103E200079F800BF00000000BC40000070B50D4EE6
:103E30000D4CA41BA4100025A54209D10B4E0C4C1F
:103E400000F06AF8A41BA4100025A54205D170BD9E
:103E500056F8253098470135EEE756F82530984753
:103E60000135F2E7E4010020E4010020E401002034
:103E7000E8010020044B054A1B681B6A002B08BFA1
:103E80001346D3F8EC00704714000020780000209F
:103E900082B001B901A942B14BB113780B6012781D
:103EA000101C18BF012002B070471046FBE76FF0EE
:103EB0000100F8E710B5431E0A44914200D110BD3D
:103EC00011F8014B03F8014FF7E702440346934210
:103ED00000D1704703F8011BF9E7034611F8012BE5
:103EE00003F8012B002AF9D17047034613F8012B80
:103EF000002AFBD1181A0138704749B1FF2A85BF43
:103F00008A2303600A704FF0FF3098BF012070478A
:103F100008467047FEE700BFF8B500BFF8BC08BC14
:103F20009E467047F8B500BFF8BC08BC9E46704777
:103F300030313233343536373839414243444546DF
:103F40005C060020240700202C07002064060020C7
:103F50001800000061707000F10D0000ED0D000010
:103F6000390E0000AC3F0000CC3F0000D43F000001
:103F7000DC3F0000E43F0000EC3F0000F43F0000A5
:103F8000FC3F000004400000202530327800000093
:103F9000202020007C000000256300002573000025
:103FA0003C25733E2025733A200000001B5B306DDA
:103FB000000000000D0A0000000000000C4000009E
:103FC000144000001C400000244000001B5B313BFB
:103FD00033306D001B5B313B33316D001B5B313B7C
:103FE00033326D001B5B313B33336D001B5B313B68
:103FF00033346D001B5B313B33356D001B5B313B54
:1040000033366D001B5B313B33376D006572726F69
:10401000720000007761726E696E6700696E666F8C
:10402000000000006465627567000000111213143F
:10403000546D725100000000546D7220537663007D
:10404000466174616C000000486974207765616B9B
:104050002068616E646C65720000000062616C6CC7
:104060006F630000636C6F636B0000006770696FC3
:10407000746500005441534B0A0D000054494D45EE
:10408000520A0D006C6F675F696E697428290A0D0A
:10409000000000004C454430000000004C45443115
:1040A000000000005465726D696E616C00000000D4
:1040B0005254540053454747455200001800002011
:1040C0004300504F534958002E000020202020204C
:1040D00020202020282828282820202020202020B8
:1040E00020202020202020202020208810101010A8
:1040F00010101010101010101010100404040404FC
:104100000404040404101010101010104141414127
:10411000414101010101010101010101010101010F
:104120000101010101011010101010104242424221
:1041300042420202020202020202020202020202DF
:104140000202020202021010101020000000000003
:10415000000000000000000000000000000000005F
:10416000000000000000000000000000000000004F
:10417000000000000000000000000000000000003F
:10418000000000000000000000000000000000002F
:10419000000000000000000000000000000000001F
:1041A000000000000000000000000000000000000F
:1041B00000000000000000000000000000000000FF
:1041C00000000000000000000000000000000000EF
:1041D000543F0000000004005C40000000000000AC
:1041E00064400000000000006C400000000000007F
:0841F0007CC0FF7F010000000C
:1041F800583F00000000000000000000FFFFFFFF24
:104208000090D0031800002000000000000000000B
:104218000000000000000000000000000000000096
:104228000000000000000000000000000000000086
:104238000000000000000000000000000000000076
:104248000000000000000000000000000000000066
:104258000000000000000000000000000000000056
:104268000000000000000000430000000000000003
:104278000000000000000000000000000000000036
:1042880000000000000000004300000000000000E3
:104298000000000000000000000000000000000016
:1042A80000000000000000004300000000000000C3
:1042B80000000000000000000000000000000000F6
:1042C80000000000000000004300000000000000A3
:1042D80000000000000000000000000000000000D6
:1042E8000000000000000000430000000000000083
:1042F80000000000000000000000000000000000B6
:104308000000000000000000430000000000000062
:104318000000000000000000000000000000000095
:104328000000000000000000430000000000000042
:104338000000000000000000000000000000000075
:104348000000000000000000FB3E0000913E00005D
:1043580000000000CA400000C8400000C94000003A
:10436800C9400000C9400000C9400000C940000021
:10437800C9400000C9400000C9400000C940000011
:10438800FFFFFFFFFFFFFFFFFFFFFFFFFFFF000033
:1043980001004153434949000000000000000000AB
:1043A8000000000000000000000000000000000005
:1043B800000041534349490000000000000000008C
:1043C80000000000000000000000000000000000E5
:1043D80000000000250200000102000000000000AB
:1043E80000000000000000000000000000000000C5
:1043F80000000000000000000000000000000000B5
:1044080000000000000000000000000000000000A4
:0400000300003A3986
:00000001FF
