:10000000000001207D260000A5260000A726000094
:10001000A9260000AB260000AD260000000000006D
:100020000000000000000000000000004904000083
:10003000B12600000000000069040000B5260000A1
:10004000ED1F0000B7260000B7260000B72600000D
:10005000B7260000B7260000B5200000B726000034
:10006000B7260000B7260000B7260000B72600001C
:10007000B7260000B7260000B7260000B72600000C
:10008000B726000071050000B7260000B726000063
:10009000B7260000B7260000B7260000B7260000EC
:1000A000B7260000B7260000B7260000B7260000DC
:1000B000B7260000B7260000000000000000000086
:1000C000B7260000B7260000B7260000B7260000BC
:1000D000B7260000B7260000B72600000000000089
:1000E0000000000000000000000000000000000010
:1000F0000000000000000000000000000000000000
:1001000000000000000000000000000000000000EF
:1001100000000000000000000000000000000000DF
:1001200000000000000000000000000000000000CF
:1001300000000000000000000000000000000000BF
:1001400000000000000000000000000000000000AF
:10015000000000000000000000000000000000009F
:10016000000000000000000000000000000000008F
:10017000000000000000000000000000000000007F
:10018000000000000000000000000000000000006F
:10019000000000000000000000000000000000005F
:1001A000000000000000000000000000000000004F
:1001B000000000000000000000000000000000003F
:1001C000000000000000000000000000000000002F
:1001D000000000000000000000000000000000001F
:1001E000000000000000000000000000000000000F
:1001F00000000000000000000000000000000000FF
:1002000010B5054C237833B9044B13B10448AFF350
:1002100000800123237010BD740000200000000046
:10022000242B00000C4B43B10C480D4910B5AFF323
:1002300000800C48036823B910BD0A48036833B92D
:100240007047094B002BF7D0BDE810401847064B0C
:10025000002BF5D0184700BF00000000242B000041
:10026000780000207000002000000000154B002BDB
:1002700008BF134B9D46A3F5803A00218B460F46DD
:100280001348144A121A02F022FC0F4B002B00D024
:1002900098470E4B002B00D0984700200021040007
:1002A0000D000D48002802D00C48AFF3008002F08A
:1002B000DFFB2000290002F09DF902F0C5FB00BF22
:1002C0000000080000000120000000000000000005
:1002D0007400002038120020000000000000000020
:1002E000074B4FF0A041185CD1F804350122824041
:1002F00022EA03001340C1F80805C1F80C35704725
:10030000FC2A000030B44FF0A04303224FF4003524
:100310004FF480244FF400204FF48011C3F8442799
:10032000C3F84827C3F84C27C3F85027C3F808552B
:10033000C3F80845C3F80805C3F8081530BC704772
:1003400038B5430704461CBF20F00704083400F00A
:10035000A9FF0E4A13689BB10D4A156840F6F77164
:100360002C448C4207D8A54205D21D44146001F0EC
:1003700043F8284638BD002501F03EF8284638BD30
:10038000044B23F007031360E6E700BF9000002052
:10039000941000209C000020704700BF00F108036B
:1003A0004FF0FF310022816080E80C00C3600361E0
:1003B000704700BF00230361704700BF43684B6074
:1003C0009A688A609A68516099600861036801338D
:1003D0000360704730B40D686B1C11D000F1080247
:1003E00000E01A4653681C68A542FAD24B60996037
:1003F0008A605160086103680133036030BC704754
:1004000002695368F2E700BF42688168036991603E
:100410008268416851605A68904204BF82685A609D
:1004200000220261186801381860704705480068AA
:1004300080F3088862B661B6BFF34F8FBFF36F8F4A
:1004400000DF00BF00000000064B19680868B0E834
:10045000F04F80F30988BFF36F8F4FF0000080F3F7
:10046000118870479C100020EFF30980BFF36F8F55
:10047000144B1A681EF0100F08BF20ED108A20E9F7
:10048000F04F10604DF8043D4FF0400080F31188AC
:10049000BFF34F8FBFF36F8F01F0F4F84FF0000000
:1004A00080F3118808BC19680868B0E8F04F1EF0A6
:1004B000100F08BFB0EC108A80F30988BFF36F8F6C
:1004C000704700BF9C100020402383F31188FEE793
:1004D00030B46FF002034FF08075074C40F8081CF1
:1004E00040F8202C40F8045C40F80C4C40F8243CC8
:1004F00030BC4438704700BFC90400000F4C08B539
:10050000E02384F8223000F077F80D4B0D4A0021EB
:100510001960D4F8883043F47003C4F88830536805
:1005200043F040435360236943F010032361FFF716
:100530007DFF402383F31188FEE700BF00ED00E05C
:100540009810002030EF00E0402383F31188024A26
:10055000136801331360704798100020034A136832
:10056000013B13600BB983F311887047981000208A
:1005700070B51D4B00221A6082B01B680193019B6D
:10058000EFF31186402383F311881849184BD1F8F3
:1005900004551A601B680093009B00F08BFE2D1A17
:1005A00025F07F45012D10D901F0C2F9022819D09C
:1005B00000F08EFE054625B10E4B4FF080525A607A
:1005C00040BF86F3118802B070BD6C1E002DF8D0BC
:1005D000002500E01C4600F07BFE631E0543002C56
:1005E000F8D1E8E76C1EF3E740110140001001402C
:1005F0000011014000ED00E0F8B5002001F0B8FC6A
:100600000A4E0B4B0B4901221F270225E0244FF411
:100610000030C3F80875C3F8042332601A60C3F8C9
:10062000445381F811430860F8BD00BF0810014031
:100630000010014000E100E0F0B5044685B072B65C
:10064000284DD5F8046501F063F9002841D026480B
:10065000264B844228BF0446321922F07F420120F3
:100660000021C5F80803C5F8402519601B680193EF
:100670004FF48033019AC5F80433BFF34F8F3CB178
:100680001B4B20BFD3F80011D3F804210A43F8D044
:10069000144A1648174B164D00214FF48037C2F804
:1006A0000873016000680390039819601B68029347
:1006B00001230299C2F80433D2F804359B1B23F0BE
:1006C0007F40A0424FF4003328BF2046C5F8803158
:1006D00010B962B605B0F0BD00F0F2FD62B605B02B
:1006E000F0BD00BF00100140FDFFFF0040110140C0
:1006F00000E100E00011014070B506460D4649B327
:1007000000FB01F04D30FFF71BFE04464C303CB3BC
:100710002060E6632564FFF717FF236CE16B226816
:10072000A26001FB03F1CB1A134400200A444FF0EE
:10073000FF31A063E36061646260A16404F11000B2
:10074000FFF72CFE04F12400FFF728FEFFF706FF59
:10075000204670BD4C20FFF7F3FD04460028D7D19A
:10076000002070BD2DE9F047044684B01D4601927B
:100770008846FFF7E9FEA26BE36BA04F4FF000093C
:100780009A424E4671D3022D00F0F0800198002865
:1007900000F05181B9F1000F00F0CE80FFF7DEFECE
:1007A00000F080FDFFF7D0FE636C013308BF666484
:1007B000A36C013308BFA664FFF7D0FE01A902A80D
:1007C00001F070F8002840F0EF80FFF7BDFEA26B4B
:1007D000E36B9A4261D0FFF7C1FEFFF7B5FEA36C51
:1007E000002B14DD636A93B104F1240907E0A36CC4
:1007F000013BA364A36C002B09DD636A3BB148464F
:1008000000F0F4FF0028F2D001F07CF8EFE74FF0A1
:10081000FF33A364FFF7A2FEFFF796FE636C002B85
:1008200014DD236993B104F1100907E0636C013B07
:100830006364636C002B09DD23693BB1484600F01B
:10084000D5FF0028F2D001F05DF8EFE74FF0FF335D
:100850006364FFF783FE00F0CFFDFFF775FEA26B28
:10086000E36B9A424FF001098DD2226C002A40F0CE
:10087000E9802568002D63D0A36B626A0133A3630E
:100880002AB104F1240000F0B1FF012864D0FFF781
:1008900065FE012004B0BDE8F08704F11009FFF700
:1008A0005DFE4846019900F019FFFFF74DFEA36C6D
:1008B000002B14DD636A93B104F1240A07E0A36CF2
:1008C000013BA364A36C002B09DD636A3BB1504676
:1008D00000F08CFF0028F2D001F014F8EFE74FF0A1
:1008E000FF33A364FFF73AFEFFF72EFE636C002B85
:1008F00006DC0FE0636C013B6364636C002B09DD75
:1009000023693BB1484600F071FF0028F2D000F0A7
:10091000F9FFEFE74FF0FF336364FFF71FFE00F0CE
:100920006BFD002899D14FF080537B6040BFBFF32F
:100930004F8FBFF36F8F90E702A800F0A7FF2DE75E
:10094000606801F051F8A36B626A65600133A363CC
:10095000002A96D100289AD0284B4FF080525A6036
:1009600040BFBFF34F8FBFF36F8F90E7226C002A19
:100970003FF47FAF4146E06802F09EF8236CE268E6
:1009800021685B421A448A42E26005D262681344DD
:10099000E360022D7FF470AFA36B002B3FF46CAFCC
:1009A000A36B013BA36367E7FFF7CEFDA36C002BAE
:1009B00014DD636A93B104F1240507E0A36C013BE5
:1009C000A364A36C002B09DD636A3BB1284600F0E9
:1009D0000DFF0028F2D000F095FFEFE74FF0FF3356
:1009E000A364FFF7BBFDFFF7AFFD636C002B17DDC2
:1009F0002369ABB104F110050AE000BF00ED00E08F
:100A0000636C013B6364636C002B09DD23693BB1BC
:100A1000284600F0EBFE0028F2D000F073FFEFE76D
:100A20004FF0FF336364FFF799FD00F0E5FC002011
:100A300004B0BDE8F0870090FFF790FD009804B087
:100A4000BDE8F08741466DB9A06802F035F8A368AB
:100A5000216C62680B449342A360FFF40DAF2368DE
:100A6000A36009E7E06802F027F8236CE2682168D8
:100A70005B421A448A42E2608BD287E7F0B50446B3
:100A800083B01646EFF31185402282F31188806B04
:100A9000E26B90421AD3022B04D0002085F3118818
:100AA00003B0F0BD226C019312BB2768002F45D024
:100AB000A36B0133A363A36C013331D0A36C013367
:100AC000A364012085F3118803B0F0BD226C002AD5
:100AD000EBD0002B37D1A06801F0EEFFA368216CAA
:100AE00062680B449342A360E2D32368A360DFE70C
:100AF000E06801F0E1FF216CE2682068019B494257
:100B00000A448242E26004D262681144E160022B2E
:100B1000CED1A36B002BCBD0A36B013BA363C7E764
:100B2000636A002BCDD004F1240000F05FFE0028A2
:100B3000C7D0002EC5D001203060AFE7606800F05C
:100B400053FF6760B4E7E068019301F0B5FF216CE3
:100B5000E2682068019B49420A448242E260D6D2A0
:100B6000D2E700BF2DE9F047044684B09A46884694
:100B70000192FFF7E9FCA36BA64E00273D46002B30
:100B800040F09C800198002800F0F880002F00F0D1
:100B9000E180FFF7E3FC00F085FBFFF7D5FC636C19
:100BA000013308BF6564A36C013308BFA564FFF778
:100BB000D5FC01A902A800F075FE002840F0E580F0
:100BC000FFF7C2FCA36B0BB3FFF7C8FCFFF7BCFC3D
:100BD000A36C002B40F39F80636A002B00F09B8086
:100BE00004F124090AE0A36C013BA364A36C002B6D
:100BF00040F39180636A002B00F08D80484600F03E
:100C0000F5FD0028EFD000F07DFEECE7FFF7A6FC35
:100C10002368002B00F0AA8004F1240948460199BA
:100C200000F05CFDFFF790FCA36C002B06DC0FE0EE
:100C3000A36C013BA364A36C002B09DD636A3BB189
:100C4000484600F0D3FD0028F2D000F05BFEEFE74D
:100C50004FF0FF33A364FFF781FCFFF775FC636C73
:100C6000002B14DD236993B104F1100907E0636CD4
:100C7000013B6364636C002B09DD23693BB148468B
:100C800000F0B4FD0028F2D000F03CFEEFE74FF09A
:100C9000FF336364FFF762FC00F0AEFB38B94FF03E
:100CA0008053736040BFBFF34F8FBFF36F8FFFF769
:100CB0004BFCA36B0127002B3FF464AF226CE5686B
:100CC0004AB16368A9189942E16024BF2168E160D4
:100CD000404601F0F1FEBAF1000F40F09D80A36B99
:100CE0002268013BA363002A00F0A7802369002B40
:100CF00000F0958004F1100000F078FD012840F02C
:100D00008E80444B4FF080525A6040BFBFF34F8FEC
:100D1000BFF36F8F83E04FF0FF33A364FFF71EFC38
:100D2000FFF712FC636C002B18DD2369B3B104F1EB
:100D3000100907E0636C013B6364636C002B0DDDFD
:100D400023695BB1484600F051FD0028F2D000F065
:100D5000D9FDEFE702A800F099FD1AE74FF0FF3345
:100D60006364FFF7FBFB00F047FBA0E7FFF7ECFB3A
:100D7000606800F0EDFDFFF7F1FB4DE70090FFF735
:100D8000EDFB009804B0BDE8F087FFF7DDFBA36C36
:100D9000002B14DD636A93B104F1240507E0A36C12
:100DA000013BA364A36C002B09DD636A3BB12846B9
:100DB00000F01CFD0028F2D000F0A4FDEFE74FF09A
:100DC000FF33A364FFF7CAFBFFF7BEFB636C002B86
:100DD00014DD236993B104F1100507E0636C013B56
:100DE0006364636C002B09DD23693BB1284600F086
:100DF000FDFC0028F2D000F085FDEFE74FF0FF3357
:100E00006364FFF7ABFB00F0F7FA002004B0BDE825
:100E1000F08700BF00ED00E0636AE5602BB9FFF7E3
:100E20009DFB012004B0BDE8F08704F1240000F030
:100E3000DDFC00287FF465AFF1E700F017FE60608D
:100E400054E700BF074B1A681AB19A6802B170479D
:100E5000012210B403EBC20443F8321060605DF865
:100E6000044BF4E72012002038B504460D46FFF786
:100E70006BFB636C013304BF00236364A36C013319
:100E800004BF0023A364FFF769FBA36B23B92946C2
:100E900004F1240000F06CFCFFF756FBA36C002B60
:100EA00014DD636A93B104F1240507E0A36C013BF0
:100EB000A364A36C002B09DD636A3BB1284600F0F4
:100EC00095FC0028F2D000F01DFDEFE74FF0FF3356
:100ED000A364FFF743FBFFF737FB636C002B14DDC4
:100EE000236993B104F1100507E0636C013B63646F
:100EF000636C002B09DD23693BB1284600F076FCCA
:100F00000028F2D000F0FEFCEFE74FF0FF336364FF
:100F1000BDE83840FFF722BB2DE9F84F0C9EDDF805
:100F2000289082460F4615469B46002E00F0918081
:100F30004820FFF705FA0446002800F09580AD0030
:100F40002A460663A521304601F0C1FD3A78236B9D
:100F500084F83420043D3A781D4425F007053AB161
:100F60007B7884F835307B7813B1BB7884F83630E1
:100F70004F46022F28BF02274FF00008261DE762C8
:100F8000A763304684F83780C4F83C80FFF712FA34
:100F9000C7F1030704F11800FFF70CFAC4F840800A
:100FA000A761246184F8448064625A465146284609
:100FB000FFF78EFA0B9B206003B11C60FFF7C4FAA9
:100FC0003F4A404D1368013313602B68002B3AD021
:100FD0003D4F3B6873B3E36ADFF814C1DFF814E1F7
:100FE0003A48DCF80080012404FA03F203EB83039F
:100FF00000EB8300DEF8003042EA08022344314669
:10100000CEF80030CCF80020FFF7D8F9FFF7A6FAA9
:101010003B68ABB12B68DB6A994511D92C4B4FF07B
:1010200080525A6040BFBFF34F8FBFF36F8F20468F
:10103000BDE8F88F2B68DB6A994528BF2C60CAE7AA
:101040002046BDE8F88F2C601368012B13D01E4F8B
:10105000C1E79000FFF774F9064600287FF468AFF7
:101060004FF0FF30BDE8F88F3046FFF795F94FF0AD
:10107000FF30BDE8F88F1548DFF87CA0DFF87C80F2
:10108000114FFFF78BF91348FFF788F91248FFF764
:1010900085F95046FFF782F94046FFF77FF90F4880
:1010A000FFF77CF90E48FFF779F90E48FFF776F95C
:1010B0000D4A0E4BC2F800A0C3F800808BE700BFBA
:1010C000E41000209C10002040110020A8100020F7
:1010D00000ED00E0BC100020D01000202C110020FA
:1010E0005811002044110020A0100020A41000205E
:1010F000F8100020F0100020FC100020101100203B
:101100002DE9F843F020FFF71BF9002875D00546BC
:101110004820FFF715F90446002876D00563F02231
:101120002846A52101F0D3FC206B4C4E0025492117
:1011300044224C23271D84F8341084F8352084F889
:10114000363000F1EC0884F837503846E562A56384
:10115000E563FFF72FF904F11800FFF72BF928F0EA
:10116000070803232A462564A3613D4984F84450B7
:10117000404624616462FFF7ABF93A4B20601C6083
:10118000FFF7E2F9384A1368013313603368002B24
:1011900035D0364D2B681BB93368DB6A03B9346030
:1011A000E26ADFF8F0C0DFF8F0E03148DCF8004038
:1011B0000123934002EB820200EB8200DEF8002064
:1011C000234301323946CCF80030CEF80020FFF737
:1011D000F5F8FFF7C3F92B6803B1336800F052FC50
:1011E00001280AD1402383F31188224B2860002272
:1011F0001A60BDE8F843FFF781B9BDE8F8833460B1
:101200001368012B06D0194DCAE72846BDE8F843FC
:10121000FFF7C2B81648DFF88490DFF88480134DDA
:10122000FFF7BCF81448FFF7B9F81448FFF7B6F811
:101230004846FFF7B3F84046FFF7B0F81048FFF70D
:10124000ADF81048FFF7AAF80F48FFF7A7F80F4AC4
:101250000F4BC2F80090C3F80080A1E79C1000205B
:101260009115000024110020E410002040110020FE
:10127000A81000206C110020BC100020D01000200D
:101280002C1100205811002044110020A010002033
:10129000A4100020F8100020F0100020FC10002006
:1012A00010110020024A136801331360704700BF19
:1012B000EC100020014B1868704700BF6C11002033
:1012C000024A136818441060704700BF6C11002078
:1012D0002DE9F04F3D4B1B6883B0002B43D13C4BB5
:1012E0001A6801321A60D3F80080B8F1000F48D0B4
:1012F000384B01931B6898455AD3374E374FDFF868
:10130000F0A0DFF8F090002524E03368DB68DC68AB
:10131000636804F1040B9845584654D3FFF774F8FA
:10132000A36A04F118000BB1FFF76EF8E06A3A689F
:101330000123834000EB8000134359460AEB8000F1
:101340003B60FFF73BF8D9F80030E26ADB6A9A426B
:1013500028BF012533681B68002BD6D1019A4FF0B6
:10136000FF33136004E01E4A136801331360002545
:101370001C4B1B68002B18BF0125284603B0BDE895
:10138000F08F154E184B3168184A18683060196094
:1013900013680133136033681B685BB90D4B01930D
:1013A0001A464FF0FF33136013461B689845A4D2CA
:1013B0000025DDE73368074ADB680192DB685B687C
:1013C0001360134696E7019A1360D1E7EC100020F2
:1013D0006C11002000000020A0100020F810002058
:1013E000E810002070110020A41000202811002017
:1013F000A81000209C1000202DE9F84FFFF7A4F85A
:10140000324B1A68013A1A601B68002B49D1304BE5
:101410001B68002B45D0DFF8CC90DFF8CCB02D4D09
:10142000DFF8C8802C4F012622E0DBF80C30D3F81F
:101430000CA00AF104040AF11800FEF7E5FF2046AB
:10144000FEF7E2FFDAF82C002A6806FA00F300EB58
:1014500080001343214608EB80002B60FEF7AEFFAF
:101460003B68DAF82C20DB6A9A4228BFC9F8006092
:10147000DBF80030002BD8D1184C23686BB12368FF
:101480005BB10125FFF724FF08B1C9F800502368BC
:10149000013B23602368002BF4D1D9F80040012CD4
:1014A00005D00024FFF75AF82046BDE8F88F0C4B12
:1014B0004FF080525A6040BFBFF34F8FBFF36F8F22
:1014C000FFF74CF82046BDE8F88F00BFEC10002075
:1014D000E4100020F81000209C100020E8100020EC
:1014E00000ED00E0701100202C110020A810002059
:1014F00070B548B91E4B4FF080525A6040BFBFF3E1
:101500004F8FBFF36F8F70BD1A4A1B4E13681B4D70
:101510000133136004463368286804301C44FEF726
:1015200073FF40B92B681649D86A0B6801228240C4
:1015300023EA02030B602A68336854609C420FD38D
:10154000104B186829680431FEF744FF0E4B1A68E7
:10155000944238BF1C60FFF74FFF0028CAD070BD0F
:101560000A4B186829680431FEF734FFF3E700BF1F
:1015700000ED00E0EC1000206C1100209C10002019
:10158000F8100020A010002000000020A41000206F
:101590002DE9F84F324C334E334DDFF8DC80DFF865
:1015A000DC90DFF8DCB007E02368376801332360A4
:1015B000FFF722FF002F32D12B68002BF4D1D8F88F
:1015C0000030012B45D9294B4FF080525A6040BF63
:1015D000BFF34F8FBFF36F8FD9F80030DB6A002B5A
:1015E000EAD1D8F80030012BE6D8214ADBF80030E8
:1015F00012689B1A012BDFD9236801332360D9F8C5
:101600000030DB6A43B91A4BDBF800001B68C01AD4
:10161000012801D9FFF710F8FFF7EEFECCE7FEF73F
:1016200093FFF368D3F80CA00AF10400FEF7ECFE78
:10163000104B1A68013A1A602A68013A2A60FEF7CC
:101640008DFFDAF83000FEF7A7FE5046FEF7A4FE45
:10165000B2E7D9F80030DB6A002BC6D0ACE700BF98
:10166000EC10002058110020F410002000ED00E0E4
:101670006C110020E4100020A81000209C10002015
:1016800000000020104B1B68CBB91049104A0B60BA
:101690001368104AB3FA83F3C3F11F0303EB830308
:1016A0009B00D0180833416849684160134499424F
:1016B00004BF49684160084BCA681A607047034B11
:1016C00001221A60704700BFEC100020701100204A
:1016D000F8100020A81000209C10002038B51D4DE7
:1016E0002B680C4603F11801FEF774FE28680430DD
:1016F000FEF78AFE40B92B681749D86A0B680122A9
:10170000824023EA02030B60631C1BD0134B196851
:101710002A681B680C449C4254600BD3104B186819
:1017200029680431FEF756FE0E4B1A68944238BF02
:101730001C6038BD0C4B18682968BDE8384004317E
:10174000FEF748BE296809480431BDE83840FEF775
:1017500035BE00BF9C100020F81000206C11002046
:10176000A010002000000020A41000204411002040
:1017700070B5184D2B680E4603F11801FEF71EFEDA
:1017800028680430FEF740FE40B92B681249D86A39
:101790000B680122824023EA02030B600F4B1C6896
:1017A0002A681B6834449C4254600BD30C4B186865
:1017B00029680431FEF70EFE0A4B1A68944238BFBE
:1017C0001C6070BD084B18682968BDE87040043182
:1017D000FEF700BE9C100020F81000206C110020C5
:1017E000A010002000000020A4100020F8B5C3685D
:1017F000DC6804F118052846FEF706FE1B4B1B6843
:10180000002B2DD1261D1A4D3046FEF7FDFDE26A54
:101810002F6818480123934002EB82023B43314674
:1018200000EB82002B60FEF7C9FD134BE26A1B68D8
:10183000DB6A9A4282BF114B01201860104B1A6874
:10184000126898BF002032B11A680E4BD268D26875
:1018500052681A60F8BD0B4B4FF0FF321A60F8BDAA
:1018600029460948FEF7AAFDDFE700BFEC1000207B
:10187000F8100020A81000209C10002070110020FB
:10188000A0100020000000202C110020034A044B6F
:1018900012681B6880E80C00704700BF2811002008
:1018A0006C110020F8B50D460446FEF74DFE2B687E
:1018B0001249581C0A681BD0114E276830688742AD
:1018C000606801D082420ED2171ABB420BD99B1A14
:1018D000034430680A682B6084E805000025FEF7A1
:1018E0003DFE2846F8BD0125FEF738FE2846F8BD26
:1018F0000025FEF733FE2846F8BD00BF6C1100201E
:1019000028110020014B01221A607047701100203D
:10191000054B1B682BB9054B1868B0FA80F04009DD
:1019200070470020704700BF2C110020701100206C
:10193000054B1B6833B1054B1B68002B0CBF022005
:10194000002070470120704740110020EC1000205B
:10195000002841D0F8B5214CC36A2268D26A93426C
:1019600012D28269002A04DB2268D26AC2F1030221
:1019700082611B4D426903EB830305EB83039A42AB
:1019800003D02368DB6AC362F8BD071D06463846EC
:10199000FEF73AFDF0B9F36A03EB830255F8222013
:1019A000C2B9104A0120116800FA03F321EA0303C7
:1019B000136023681468D86AF062012383402343CC
:1019C00000EB80001360394605EB8000BDE8F8406D
:1019D000FEF7F4BC034AECE7704700BF9C10002000
:1019E000A8100020F8100020002839D0F8B5C36BEB
:1019F000C16A826B013B9142C36300D00BB10020EE
:101A0000F8BD071D04463846FEF7FEFC78B9E36AC8
:101A10001448154E03EB830250F822204AB932686D
:101A2000012101FA03F322EA0303336001E00D48C8
:101A30000D4EA36BD6F800C0E3620125C3F1030E7F
:101A400005FA03F203EB830342EA0C0200EB830086
:101A50003946C4F818E03260FEF7B0FC2846F8BDFD
:101A600000207047A8100020F8100020044B1A68CE
:101A70001AB11968CA6B0132CA631868704700BF8F
:101A80009C100020F0B5184C85B0FEF75DFD256870
:101A90008DB1FEF763FD206858B100231349019111
:101AA0000222009203930293502211491148FFF73A
:101AB00033FA05B0F0BD104F104E3846FEF76EFCFD
:101AC0003046FEF76BFC0E4A0E4B176010212A467B
:101AD00020201E60FEF710FE20600028D9D00A49A1
:101AE000FFF7B0F9D5E700BFA8110020AC11002026
:101AF000082B00000D1C00007C110020901100201C
:101B00007411002078110020002B00002DE9F04F07
:101B100083B0F9B1064628200D4698461746FEF7D1
:101B20000FFC0446B0B1DFF88090FEF70DFDD9F848
:101B30000020A2B1FEF712FD0C9B2660201DA561BE
:101B4000E761C4F820806362FEF734FC204603B0EE
:101B5000BDE8F08F0024204603B0BDE8F08FDFF829
:101B60004CB0DFF84CA001925846FEF717FC5046E7
:101B7000FEF714FC09490A4BC1F800B0019AC3F8FA
:101B800000A010212020FEF7B7FDC9F800000028B2
:101B9000D0D00449FFF756F9CCE700BF74110020FC
:101BA00078110020002B0000A81100207C110020DB
:101BB0009011002030B5144D2C6885B004B3052970
:101BC0008DE8060002900BDCFFF7B2FE02280FD072
:101BD000002328681A466946FEF7C4FD05B030BDEB
:101BE0001A46204600236946FEF748FF05B030BD7F
:101BF0002868089A00236946FEF7B4FD05B030BD99
:101C0000204605B030BD00BFA81100202DE9F04FDF
:101C1000A54EDFF8A482A54D8BB033681C68002C5C
:101C200000F08C80DB681C68FFF73CFBFFF742FB91
:101C3000D8F800308342074651D88442C8F80000E3
:101C400040F29E80E11B2868FFF70EF9FFF7D4FBF6
:101C500040B9974B4FF080525A6040BFBFF34F8F4F
:101C6000BFF36F8F00231A4602A92868FEF77AFF98
:101C70000028D2D0029B002B58DB049C636913B16F
:101C8000201DFEF7C1FBFFF715FBD8F80030984286
:101C9000814641D3029BC8F80090092BE2D801226B
:101CA00002FA03F313F4047F40F0CA8013F0C70F65
:101CB00040F0AA809B06D5D52046FEF76DFBD1E704
:101CC000DB68DC68D3F800A004F104094846FEF79D
:101CD0009BFB636A20469847E369012B3AD033683F
:101CE0001A68002AECD1734AC8F800701268326092
:101CF000704A1360FFF780FBB4E7DB68DF68D3F856
:101D000000B007F1040A5046FEF77EFB7B6A3846B6
:101D10009847FB69012B28D033681A68002AECD158
:101D2000644A12683260634A1360B3E7039B059903
:101D300004989847029B002B94DB9EE7FFF7B2FACA
:101D4000FFF7B8FAD8F8003083420746C7D8C8F87A
:101D5000007077E7A36953449A45494624D26360EB
:101D600024613068FEF736FBB9E7BB695B449B45ED
:101D700051462AD27B603F613068FEF72BFBCBE7F0
:101D8000FFF73AFB3368DB68D3F80C9009F1040ADB
:101D90005046FEF739FBD9F81C30012B26D0D9F874
:101DA0002430484698475DE72B68002B97D00023E6
:101DB0000693CDF81CA00894FFF7BAFD00231A463D
:101DC00006A92868FEF7CEFC89E72B68002BA3D074
:101DD00000230693CDF81CB00897FFF7A9FD002358
:101DE0001A4606A92868FEF7BDFC95E7D9F8183011
:101DF000C9F81090E218BA42C9F8042031D9514606
:101E00003068FEF7E7FACAE7039BA16924615A1814
:101E10004A45626039D8A9EB030399421BD8636A2B
:101E200020469847E369012B7FF41CAF0399A26910
:101E300000230A44009320461946FFF7BBFE11E732
:101E4000039B246103EB09024A45A361626020D829
:101E5000002B3FF407AF174B211D1868FEF7BAFAA5
:101E600000E73F1BBB4219D82B68002B97D00023FB
:101E700006930794CDF82090FFF75AFD00231A46E9
:101E800006A92868FEF76EFC89E74B4501D9934205
:101E9000C5D9211D3068FEF79DFAE3E6054B514692
:101EA0001868FEF797FA7AE774110020A81100204D
:101EB00000ED00E078110020A411002000B585B0ED
:101EC00000230390194601AA44F20100ADF8043042
:101ED000029300F003F805B05DF804FB084B1B68A3
:101EE000DB0700D5FFDEBFF34F8F0649064BCA68FC
:101EF00002F4E0621343CB60BFF34F8F00BFFDE7F6
:101F0000F0ED00E000ED00E00400FA0572B6024AD0
:101F10001368013313607047B0110020034A13683F
:101F2000013B136003B962B6704700BFB0110020D7
:101F300010B50D4C23780BB1852010BD0B4A6360A2
:101F4000E3601068A36010F00100236107D04FF038
:101F500080420123C2F818352370002010BD0721EC
:101F600000F080F8F3E700BFB411002000E100E0CA
:101F700030B51B4DAB7883B0044673B110B14368E4
:101F8000012098470020FFF7C1FFEB6800200133D4
:101F9000EB60FFF7C3FF03B030BD03F0FF00FFF7B6
:101FA000B5FF64B12A6942B1944208D0134601E0FA
:101FB0009C4204D01B68002BFAD122602C61EB6894
:101FC000002BE2D1074A08491360136801934FF0D0
:101FD000804202200123019CC2F804030B60D4E775
:101FE000B4110020040100400800004010B51A4B55
:101FF0001A6882B0A2B100221A601B6800934FF0E9
:1020000080430122154C0099C3F80823A36862702D
:1020100033B10CCB0020A2609847A368002BF8D105
:102020000F4B1A68AAB100221A601B6801934FF087
:1020300080430222094C0199C3F808232369012235
:10204000A27033B10CCB0120226198472369002B89
:10205000F8D102B010BD00BF00010040B411002053
:1020600004010040002810B418DB00F1604303F5C0
:1020700061434901C9B283F80013C3B2400980002B
:1020800000F1604000F5614003F01F02012393401E
:10209000C0F8803103605DF8044B7047C3B2044A56
:1020A00003F00F0449012244C9B21176E6E700BFEC
:1020B000FCEC00E02DE9F04F87B00023CC4A0193FF
:1020C0001168012900F00A821E46CA4B1A68012ACB
:1020D00000F0F681C84B1A68012A00F0E381C74B73
:1020E0001A68012A00F0D081C54B1A68012A00F055
:1020F000BD81C44B1A68012A00F0AA81C24B1A683C
:10210000012A00F09781C14B1A68012A00F08481EE
:10211000BF4B1A68012A00F05E8116F0FF0F1AD03B
:10212000BC4F01250024A30003F180432E4203F598
:10213000C0434FEA45050BD0D3F8100557F82420CB
:10214000D3F81015C0F30420C1F3014102B1904748
:102150000134082CE7D1002E02DB07B0BDE8F08F78
:1021600000224FF0FF33AB4C02920393012502AEE5
:1021700094F950104F1C2DD0C9B221F0C00006AB0D
:102180004FEAD00E03EB0E0701F0070317F80C2CF3
:1021900005FA03F31A421DD02218890992F930205A
:1021A00054F82220002A00F0F080032900F0F0808B
:1021B0004FEA800E0EF1A04E17F814CCDEF800772F
:1021C0001CEA0303C7F3014940F0B880B9F1030FDB
:1021D00000F0D7814FF0030A4FF002094FF00108D9
:1021E000002794F95110481C2DD0C9B221F0C0002D
:1021F00006AB4FEAD00C03EB0C0E01F007031EF800
:102200000C2C05FA03F31A421DD02218890992F901
:10221000302054F82220002A00F0CA80032900F060
:10222000CA804FEA800C0CF1A04C1EF814BCDCF8FC
:1022300000E71BEA030FCEF3014E40F09080BEF1A1
:10224000030F00F08A8194F952104A1C2CD0C9B2B5
:1022500021F0C00006AB4FEAD00C03EB0C0E01F0EE
:1022600007031EF80C2C05FA03F31A421CD022189F
:10227000890992F9302054F82220002A00F08F803A
:10228000032900F08E804FEA800C0CF1A04C1EF860
:1022900014ACDCF800E71AEA030FCEF3014E6AD162
:1022A000BEF1030F00F0468194F953104B1C2CD063
:1022B000C9B221F0C00006AB4FEAD00E03EB0E020C
:1022C00001F0070312F80CCC05FA03F31CEA030F24
:1022D0001BD004EB000C89099CF930C054F82C90F9
:1022E000B9F1000F6ED003296ED04FEA800E0EF1C7
:1022F000A04E12F814CCDEF800271CEA030FC2F33C
:10230000014211D1032A00F0F580002F3FF425AFE0
:102310004FF0A043019AD3F810359A423FF41DAF15
:10232000029A0193039223E7022AEED1032900F0D7
:102330004681B9F1000FE8D0C847E6E7B9F1020FCE
:102340007FF448AF032900F043814FF0030A4FF0B8
:1023500001080027002A3FF444AF904741E7BEF14F
:10236000020F7FF470AF032900F02C81002A3FF4A4
:102370006AAF904767E7BEF1020F95D1032900F0DD
:102380002481002A90D090478EE703297FF422AF62
:1023900016F80EC04CEA030C06F80EC008E7032935
:1023A00082D116F80CA04AEA030A06F80CA06AE7E4
:1023B00003297FF448AF16F80CB04BEA030B06F87C
:1023C0000CB02EE70329A0D116F80EC04CEA030C7E
:1023D00006F80EC089E700221A601B6805934FF0CB
:1023E000A043059AD3F81035019346F0004694E6D1
:1023F0000061004004610040086100400C61004041
:102400001061004014610040186100401C610040F0
:102410007C610040C81100206F4AD2F804231206E4
:102420007FF576AE00221A601B680493049B46F089
:1024300080066DE6684AD2F8042351067FF563AE44
:1024400000221A601B680493049B46F040065AE67B
:10245000614AD2F8042390067FF550AE00221A603C
:102460001B680493049B46F0200647E65A4AD2F8BC
:102470000423D4067FF53DAE00221A601B68049346
:10248000049B46F0100634E6534AD2F8042315079D
:102490007FF52AAE00221A601B680493049B46F065
:1024A000080621E64C4AD2F8042357077FF517AEF9
:1024B00000221A601B680493049B46F004060EE693
:1024C000454AD2F8042392077FF504AE00221A6031
:1024D0001B680493049B46F00206FBE53E49D1F8D5
:1024E000046316F001063FF4F0AD13601368049323
:1024F000049BEAE503297FF41CAF4FF40032DEF8B9
:10250000003723F44033CEF80037DEF800371343AA
:10251000CEF80037B9F1000F01D047460CE74FF075
:10252000A043019AD3F8103593427FF4F9AE07B077
:10253000BDE8F08F03297FF424AF4FF40037DCF8B7
:10254000003723F44033CCF80037DCF800373B4346
:10255000CCF800374746C84613E703297FF406AF97
:102560004FF40037DCF8003723F44033CCF8003761
:10257000DCF800373B43CCF800374746C846D14625
:10258000F4E6032906D0CA461F464FF002094FF071
:102590000108DFE64FF40037DEF8003723F440335C
:1025A000CEF80037DEF800373B43CEF800374FF067
:1025B000040A4FF003094FF002080127CAE64FF45E
:1025C00040329CE74FF44037CCE74FF44037B6E752
:1025D0004FF44037E0E700BF006000400120FDF706
:1025E0007FBE00BF08B50020FDF77AFEC820FEF7C9
:1025F0007FFFF8E730B585B0FFF79AFC60BBFDF7C9
:1026000081FE0024164901910222234600921549B9
:1026100003944FF4827202941348FEF77DFC134B2F
:10262000009301224FF47A7123461148FFF76EFAA6
:10263000104B05461860FEF73DFE23460246009407
:1026400028460121FFF7B6FA0B4A136943F0040349
:102650001361FEF755FDFEE7FFF730FCCFE700BF43
:1026600034120020102B0000E5250000DD250000BD
:10267000182B00003012002000ED00E00649074A48
:10268000074B9B1A03DD043BC858D050FBDC00F01D
:1026900013F8FDF7EBFD0000302B000000000020D8
:1026A00074000020FEE7FEE7FEE7FEE7FEE7FEE738
:1026B000FEE7FEE7FEE7FEE7F0B4B24B1A78062A23
:1026C0001BD0B14AD2F8883043F47003C2F8883086
:1026D000BFF34F8FBFF36F8F4FF01023D3F800225B
:1026E000002AC0F27981D3F80432002BC0F2748141
:1026F000A64BA74A1A60F0BC704704331B68180742
:10270000DFD1A44B1B6803F0F002302A00F02981CE
:1027100003F0E003402B00F024819E4B1B6803F084
:10272000F003302B00F00F819A4B1B6803F0F0028E
:10273000302A00F0F88003F0E003402B00F0F38033
:10274000944B1B6803F0F003302B00F0DC80914BBE
:102750001B6803F0F002302A00F0C18003F0E003B0
:10276000402B00F0BC808B4B1B6803F0F003302B38
:1027700000F0A780874B1B6803F0F003302B00F0BC
:102780008980844B1B6803F0F003502B30D0814BC1
:102790001B6803F0F002302A19D003F0E003402B4D
:1027A00015D07C4B1B6803F0F002302A03D003F0F5
:1027B000E003402B85D14FF08043D3F80024D207AB
:1027C0007FF57FAF6FF00102C3F8002479E7724B09
:1027D000724A1B6803F04F0313606A4B1B78062B89
:1027E0007FF46FAF6E4B1B6818077FF46AAFD8E7B2
:1027F0004FF080526B4BD2F80414C3F82015D2F876
:102800000814C3F82415D2F80C14C3F82815D2F80C
:102810001014C3F82C15D2F81414C3F83015D2F8DC
:102820001814C3F83415D2F81C14C3F84015D2F8A4
:102830002014C3F84415D2F82414C3F84815D2F86C
:102840002814C3F84C15D2F82C14C3F85015D2F83C
:102850003014C3F85415D2F83414C3F86015D2F804
:102860003814C3F86415D2F83C14C3F86815D2F8CC
:1028700040144448C3F86C15D2F844140278C3F8E5
:102880007015062A7FF41DAF454B1B681C077FF4AB
:1028900018AF7CE7444E454C4549464B052701257A
:1028A00000203F223760256008601A60354B1B7896
:1028B000062B7FF406AF3A4B1B681D077FF401AF70
:1028C0005FE7304B3C4A1B780321062B11607FF4F5
:1028D000F8AE334B1B681E077FF4F3AE4AE74FF0A8
:1028E00080430022C3F80C21C3F81021C3F8382517
:1028F000244B1B78062B7FF470AF294B1B681F07F6
:102900007FF4DFAE2FE72D491E4ACB68127823F003
:102910008073062ACB607FF4D4AE214B1B681B0763
:102920007FF4CFAE13E7264B164A1B681278254971
:10293000C3F34233062A0B60B8D1194B1B681A0740
:102940007FF4BFAEFCE60F4B1F4A1B781F49116096
:10295000062B7FF4B6AE124B1B6819077FF4B1AE9D
:10296000E2E61B4B074A1B6812781A49C3F304239B
:10297000062A0B60BCD10A4B1B6819073FF4CDAE89
:102980009FE600BFE00F00F000ED00E00400002033
:102990000090D003E80F00F058020010E40E004051
:1029A000E40F00F000C00040105600408856004080
:1029B0001856004014560040A0050040F0ED00E01D
:1029C000440200103C05004074C007400DF0ADBA51
:1029D0002403001040350140184B0122C3F80425A0
:1029E000D3F80024002AFBD04FF0102315221349FE
:1029F000C3F80022D1F80034002BFBD04FF0102296
:102A000015210E4BC2F80412D3F80024002AFBD083
:102A100000220A49C3F80425D1F80034002BFBD06A
:102A2000BFF34F8F0649074BCA6802F4E0621343B5
:102A3000CB60BFF34F8F00BFFDE700BF00E0014058
:102A400000ED00E00400FA0508B5074B044613B199
:102A50000021AFF30080054B1868836A03B19847E3
:102A6000204600F03DF800BF00000000202B0000D1
:102A700070B50D4E0D4CA41BA4100025A54209D124
:102A80000B4E0C4C00F02EF8A41BA4100025A54200
:102A900005D170BD56F8253098470135EEE756F858
:102AA000253098470135F2E76800002068000020D3
:102AB000680000206C00002010B5431E0A449142BB
:102AC00000D110BD11F8014B03F8014FF7E70244A4
:102AD0000346934200D1704703F8011BF9E7000059
:102AE000FEE700BFF8B500BFF8BC08BC9E467047C3
:102AF000F8B500BFF8BC08BC9E467047111213140D
:102B0000546D725100000000546D722053766300C2
:102B10004C454430000000004C45443100000000AA
:082B2000080000200000000085
:082B280044D7FF7F010000000B
:102B3000FFFFFFFF0090D003000000000000000036
:102B40000000000000000000000000000000000085
:102B50000000000000000000000000000000000075
:102B60000000000000000000000000000000000065
:102B70000000000000000000000000000000000055
:102B80000000000000000000000000000000000045
:102B9000000000000000000025020000010200000B
:042BA0000000000031
:040000030000267D56
:00000001FF
