:10000000000001203D020000950200009702000060
:10001000990200009B0200009D0200000000000009
:100020000000000000000000000000004107000088
:10003000A10200000000000065070000A50200000A
:100040001D300000AB020000AD020000AF02000056
:10005000B1020000B30200001D340000B70200002E
:10006000B9020000BB020000BD020000BF02000098
:10007000C1020000C3020000C5020000C702000068
:10008000C9020000750C0000CD020000CF02000084
:10009000D1020000D3020000D5020000D702000008
:1000A000D9020000DB020000DD020000DF020000D8
:1000B000E1020000E3020000A7020000A702000026
:1000C000E5020000E7020000E9020000EB02000088
:0C00D000ED020000EF020000F102000051
:1000DC00364937480A1A02D0072291438D463549D2
:1000EC0035480A1A06D00722914381F30988022267
:1000FC0082F3148831483249324A00F045F83248CC
:10010C003249334A00F040F832483349334A00F060
:10011C003BF833483349344A00F036F83348344915
:10012C00344A00F031F834483449354A00F02CF8A0
:10013C0034483549354A00F027F83548354900220E
:10014C0000F02DF834483549002200F028F83448E6
:10015C003449091A082903DB0022026004300160CB
:10016C00314A90471F482049884205D00268043024
:10017C0003B4904703BCF7E700208646EC4600200A
:10018C0000212A4A9047FEE7884207D0521A05D030
:10019C00037801300B700131013AF9D17047884274
:1001AC0002D002700130FAE7704700000000012015
:1001BC0000F8002000000120000001203443000062
:1001CC000000002008000020F4020000F4020000EF
:1001DC00483E0000344300000000002000000020D6
:1001EC00483E0000483E0000483E0000483E0000EB
:1001FC00483E0000483E0000483E0000483E0000DB
:10020C00314300003C43000008000020080000209F
:10021C0008000020D8110020D8110020D81100208F
:10022C00D8110020D81300206102000025370000EF
:10023C000F484FF00701884385460E4880470E480B
:10024C00016841F470010160BFF34F8FBFF36F8FF2
:10025C00FFF73EBF09480A490A4A884207D0521A9A
:10026C0005D0037801300B700131013AF9D1704798
:10027C00000001200138000088ED00E0483E00003D
:10028C000000002000000020FEE7FEE7FEE7FEE78E
:10029C00FEE7FEE7FEE7FEE7FEE7FEE7FEE7FEE72A
:1002AC00FEE7FEE7FEE7FEE7FEE7FEE7FEE7FEE71A
:1002BC00FEE7FEE7FEE7FEE7FEE7FEE7FEE7FEE70A
:1002CC00FEE7FEE7FEE7FEE7FEE7FEE7FEE7FEE7FA
:1002DC00FEE7FEE7FEE7FEE7FEE7FEE7FEE7FEE7EA
:0802EC00FEE7FEE7FEE700BF9C
:1002F40000B583B00190019B1B681F2B04D90549ED
:100304004FF4E87002F01BFD4FF0A043184603B011
:100314005DF804FB483E000000B585B00190084636
:1003240011461A4603468DF803300B468DF8023009
:1003340013468DF8013001AB1846FFF7D9FF03903F
:10034400019A9DF803109DF802305B0019439DF853
:1003540001309B0019439DF818301B0219439DF886
:100364001C301B041943039B02F5E07243F822106E
:1003740000BF05B05DF804FB00B585B00390002311
:100384000193002300930023012201210398FFF726
:10039400C3FF00BF05B05DF804FB00B585B0019054
:1003A40001AB1846FFF7A4FF0390019B012202FA58
:1003B40003F31946039800F04CF800BF05B05DF84C
:1003C40004FB00B585B0019001AB1846FFF790FF20
:1003D4000390019B012202FA03F31946039800F0EB
:1003E40042F800BF05B05DF804FB00B585B001908C
:1003F40001AB1846FFF77CFF0390039BD3F8043549
:100404000293029BDA43019B012101FA03F31A4090
:10041400039BC3F80825019B01229A40029B1A40C2
:10042400039BC3F80C2500BF05B05DF804FB00B5C1
:1004340083B001900091009B002B03D10198FFF73A
:10044400C0FF02E00198FFF7A8FF00BF03B05DF80A
:1004540004FB82B001900091019B009AC3F8082527
:1004640000BF02B0704782B001900091019B009AD6
:10047400C3F80C2500BF02B07047000000B583B07C
:100484000190019B032B03D90749442002F057FC38
:10049400064A019B13441B7801211846FFF7C7FF46
:1004A40000BF03B05DF804FB803E0000D03E0000B6
:1004B40000B583B00023019305E00198FFF7DEFF48
:1004C400019B01330193019B032BF6D900BF03B0B9
:1004D4005DF804FB00B583B00190019B032B03D9A5
:1004E40007495C2002F02BFC064A019B13441B784D
:1004F4001846FFF77AFF00BF03B05DF804FB00BFA6
:10050400803E0000D03E000000B583B0002301937C
:1005140009E0094A019B13441B781846FFF72CFF96
:10052400019B01330193019B032BF2D9FFF7C0FF19
:1005340000BF03B05DF804FBD03E000000B585B0F9
:10054400019000230393019B03F00703002B04D0C5
:10055400019B23F007030833019301F0FFF9164BC5
:100564001B68002B05D1154B23F007031A46124BC9
:100574001A60134B1A68019B134440F6F7729342B6
:1005840013D80F4B1A68019B1A440D4B1B689A42EF
:100594000BD9094B1A680A4B1B6813440393084B85
:1005A4001A68019B1344064A136001F003FA039B83
:1005B400184605B05DF804FB0C1000201000002064
:1005C4000810002000B583B00190019B002B03D0DC
:1005D40003499D2002F0B3FB00BF03B05DF804FBA8
:1005E400D43E000082B00190019B03F10802019BFC
:1005F4005A60019B4FF0FF329A60019B03F108029D
:10060400019BDA60019B03F10802019B1A61019BC3
:1006140000221A6000BF02B0704782B00190019BB3
:1006240000221A6100BF02B0704784B001900091AB
:10063400019B5B680393009B039A5A60039B9A682F
:10064400009B9A60039B9B68009A5A60039B009AE4
:100654009A60009B019A1A61019B1B685A1C019BBA
:100664001A6000BF04B0704784B001900091009BF1
:100674001B680293029BB3F1FF3F03D1019B1B69EB
:1006840003930CE0019B0833039302E0039B5B6834
:100694000393039B5B681A68029B9A42F6D9039BF7
:1006A4005A68009B5A60009B5B68009A9A60009BA2
:1006B400039A9A60039B009A5A60009B019A1A61FC
:1006C400019B1B685A1C019B1A6000BF04B0704751
:1006D40084B00190019B1B690393019B5B68019AA1
:1006E40092689A60019B9B68019A52685A60039BC6
:1006F4005A68019B9A4203D1019B9A68039B5A60F2
:10070400019B00221A61039B1B685A1E039B1A60FB
:10071400039B1B68184604B0704700000648006835
:1007240080F3088862B661B6BFF34F8FBFF36F8F53
:1007340000DF00BF00BF000000000000074B196885
:100744000868B0E8F04F80F30988BFF36F8F4FF06B
:10075400000080F31188704700BF00002C100020B7
:10076400EFF30980BFF36F8F154B1A681EF0100F5B
:1007740008BF20ED108A20E9F04F10604DF8043DC9
:100784004FF0400080F31188BFF34F8FBFF36F8F9A
:1007940001F074FA4FF0000080F3118808BC196866
:1007A4000868B0E8F04F1EF0100F08BFB0EC108AD4
:1007B40080F30988BFF36F8F704700BF00BF00004C
:1007C4002C100020034BDB681B0A03F007031846B8
:1007D400704700BF00ED00E082B0034600918DF841
:1007E40007309DF90730002B0CDA0D499DF80730CE
:1007F40003F00F03043B009AD2B25201D2B20B446D
:100804001A7609E007499DF90730009AD2B25201DD
:10081400D2B20B4483F8002300BF02B0704700BF7C
:1008240000ED00E000E100E086B003900291019247
:10083400039B043B0393002305939DF8173043F077
:1008440001038DF81730059A039B1A60039B043B40
:100854000393029A039B1A60039B043B03930B4A82
:10086400039B1A60039B143B0393019A039B1A6036
:10087400039B043B0393039B6FF002021A60039BE8
:10088400203B0393039B184606B07047950800006D
:1008940000B583B0074B1B68B3F1FF3F03D0064993
:1008A400C72002F04CFA40230193019B83F3118883
:1008B400FEE700BF101000203C3F000000B585B0EB
:1008C400304B1B68304A934203D03049D92002F0A0
:1008D40036FA2F4B0393039B1B78DBB20293039BE3
:1008E400FF221A70039B1B78DBB28DF807309DF84A
:1008F4000730DBB203F00203DAB2264B1A70264B40
:1009040007221A600BE0244B1B68013B224A136048
:100914009DF80730DBB25B00DBB28DF807309DF841
:100924000730DBB203F08003802BECD01A4B1B683A
:1009340003F00703184A1360029BDAB2039B1A7090
:100944000F216FF00100FFF747FF00F0D9F9134BB7
:1009540000221A6000F06EF8114A114B5B6843F0F4
:1009640040435360074A074B1B6943F0100313616C
:10097400FFF7D4FEFFF78CFF0023184605B05DF89F
:1009840004FB00BF00ED00E041C20F413C3F00000A
:1009940000E400E0141000201810002010100020C3
:1009A40030EF00E000B583B040230193019B83F353
:1009B40011880C4B1B6801330A4A1360094B1B68EE
:1009C400012B0AD1084B5B68C3F30803002B04D046
:1009D40006494FF49D7002F0B2F900BF03B05DF810
:1009E40004FB00BF1010002000ED00E03C3F0000BD
:1009F40000B583B00D4B1B68002B04D10C4940F2A9
:100A0400411002F09CF9094B1B68013B074A136033
:100A1400064B1B68002B04D100230193019B83F335
:100A2400118800BF03B05DF804FB00BF1010002064
:100A34003C3F0000044A044BD3F8883043F470036D
:100A4400C2F8883000BF704700ED00E000B585B003
:100A5400EFF305830193019B0093BDF80030C3F3CA
:100A640008039BB20393039B0F2B12D9114A039BD8
:100A7400103B134493F800338DF80B300E4B1B7866
:100A84009DF80B209A4204D20C4940F27B1002F0EC
:100A940056F9FFF797FE0246094B1B689A4204D9A0
:100AA400064940F28B1002F04AF900BF05B05DF828
:100AB40004FB00BF00E100E0141000203C3F0000F4
:100AC4001810002082B003468DF8073007499DF9BD
:100AD40007305B099DF8072002F01F02012000FA8D
:100AE40002F241F8232000BF02B0704700E100E0A9
:100AF40082B003468DF8073008499DF907305B0939
:100B04009DF8072002F01F02012000FA02F2603370
:100B140041F8232000BF02B0704700BF00E100E0AD
:100B240082B0034600918DF807309DF90730002B01
:100B34000CDA0D499DF8073003F00F03043B009ACB
:100B4400D2B25201D2B20B441A7609E007499DF998
:100B54000730009AD2B25201D2B20B4483F8002378
:100B640000BF02B0704700BF00ED00E000E100E00C
:100B740084B0EFF311830193019B03934023029309
:100B8400029B83F31188039B184604B0704784B01A
:100B9400039002910192039B029A02F5A8720199B3
:100BA40043F8221000BF04B0704782B00190009156
:100BB400019B009AC3F8042300BF02B0704782B0BF
:100BC40001900091019B009AC3F8082300BF02B072
:100BD400704784B001900B46ADF80230BDF8023086
:100BE400019A134400221A60BDF80230019A13449A
:100BF4001B680393039B00BF04B0704782B001904D
:100C0400019BD3F80435184602B0704700B583B091
:100C140001900091009BB3F5805F04D3064940F234
:100C2400311002F08CF8019B009AC3F8082500BF2C
:100C340003B05DF804FB00BFA43F000082B0019044
:100C44000B468DF803309DF80320019B13441A468C
:100C54000123136000BF02B0704782B0019000917D
:100C6400019B009AC3F8442300BF02B07047000000
:100C740000B587B04FF4A0711F48FFF7AAFF002307
:100C84000593FFF775FF03901B48FFF7B7FF02902A
:100C94004FF480711848FFF79CFF00F01BFF0246D9
:100CA400029B9B1A23F07F430493049B012B0DD9D1
:100CB40001F058FB0346022B08D00123049305E0FE
:100CC40000F032FF0246059B13430593049B5A1E12
:100CD4000492002BF4D1059B002B04D0074B4FF05A
:100CE40080525A6040BF039B0193019B83F3118898
:100CF40000BF07B05DF804FB0010014000ED00E008
:100D040008B5002002F014F91F210E48FFF77EFFFA
:100D140001210C48FFF749FF08210A48FFF78EFF1D
:100D240000210848FFF78AFF02210648FFF795FFD4
:100D34000F211120FFF7F4FE1120FFF7C3FE00BFBF
:100D440008BD00BF0010014000B589B00190019BAF
:100D5400344A934201D9334B019372B63248FFF7B8
:100D64004DFF069001F078F90346002B55D0069A02
:100D7400019B134423F07F43059301212A48FFF785
:100D84001EFF059A00212848FFF701FF4FF4A071C8
:100D94002548FFF71EFF4FF480312348FFF705FF76
:100DA400BFF34F8F019B0493049B002B09D020BFFA
:100DB4001E4BD3F800211D4BD3F804311343002BF1
:100DC400F5D04FF480311848FFF7F9FE4FF4A071C5
:100DD4001548FFF7FEFE4FF480711348FFF7F9FE44
:100DE40001211148FFF7E1FE0F48FFF707FF0390C9
:100DF400039A069BD31A23F07F4307931120FFF72E
:100E040077FE079A019B9A4201D9019B0793079B9E
:100E1400002B02D0079800F067FE62B600BF09B04D
:100E24005DF804FBFDFFFF000010014000E100E05D
:100E340084B0EFF311830193019B03934023029346
:100E4400029B83F31188039B184604B0704700008B
:100E540000B585B001900091019B0393039B002B87
:100E640004D12B494FF4847001F069FFFFF79AFD18
:100E7400039B1A68039BDB6B0399096C01FB03F367
:100E84001A44039B5A60039B00229A63039B1A68CB
:100E9400039B9A60039B1A68039BDB6B013B0399DA
:100EA400096C01FB03F31A44039BDA60039B4FF0C4
:100EB400FF325A64039B4FF0FF329A64009B002B6D
:100EC40015D1039B1B69002B1BD0039B10331846C1
:100ED40000F0AAFF0346012B13D10E4B4FF08052B2
:100EE4005A6040BFBFF34F8FBFF36F8F09E0039B7E
:100EF40010331846FFF776FB039B24331846FFF79D
:100F040071FBFFF775FD0123184605B05DF804FB7E
:100F1400DC3F000000ED00E000B589B003900291D1
:100F240013468DF8073000230693039B002B04D14E
:100F340020494FF4A27001F002FF029B002B02D162
:100F44000023079305E0039B029A02FB03F301339A
:100F54000793079B4C331846FFF7F0FA0590059B5F
:100F6400002B19D0059B0493029B002B03D1049BF7
:100F7400049A1A6004E0059B03F14C02049B1A6076
:100F8400049B039ADA63049B029A1A64012104986D
:100F9400FFF75EFF049B0693069B002B04D10549D3
:100FA4004FF4C17001F0CBFE069B184609B05DF802
:100FB40004FB00BFDC3F000000B58BB0039002913E
:100FC4000192009300230993039B0893089B002B31
:100FD40004D1604940F26B2001F0B1FE029B002B6A
:100FE40008D1089B1B6C002B04D05A494FF41B708A
:100FF40001F0A5FE009B022B08D1089BDB6B012BA3
:1010040004D0544940F26D2001F099FE01F0AAF990
:101014000346002B07D1019B002B04D04D494FF40C
:101024001C7001F08CFEFFF7BDFC089B9A6B089BBB
:10103400DB6B9A4202D3009B022B2BD1009A0299BC
:10104400089800F0E3F90790089B5B6A002B11D025
:10105400089B2433184600F0E7FE0346012B15D104
:101064003D4B4FF080525A6040BFBFF34F8FBFF3E8
:101074006F8F0BE0079B002B08D0374B4FF080524B
:101084005A6040BFBFF34F8FBFF36F8FFFF7B0FCC1
:1010940001235BE0019B002B03D1FFF7A9FC002394
:1010A40054E0099B002B05D105AB184600F01CFF4A
:1010B40001230993FFF79CFC00F050FCFFF772FC3E
:1010C400089B5B6CB3F1FF3F02D1089B00225A647A
:1010D400089B9B6CB3F1FF3F02D1089B00229A64EA
:1010E400FFF786FC01AA05AB1146184600F01AFF6B
:1010F4000346002B24D1089800F077FA0346002B0E
:1011040018D0089B1033019A1146184600F006FEC9
:10111400089800F00AFA00F04DFC0346002B82D137
:101124000D4B4FF080525A6040BFBFF34F8FBFF357
:101134006F8F78E7089800F0F8F900F03BFC72E74D
:10114400089800F0F2F900F035FC002318460BB0C3
:101154005DF804FBDC3F000000ED00E000B589B061
:101164000390029101920093039B0693069B002B2C
:1011740004D12E494FF4856001F0E1FD029B002B60
:1011840008D1069B1B6C002B04D0284940F229404F
:1011940001F0D5FD009B022B08D1069BDB6B012BD4
:1011A40004D0224940F22A4001F0C9FDFFF74EFC69
:1011B400FFF73EFE0590069B9A6B069BDB6B9A42FB
:1011C40002D3009B022B24D1009A0299069800F0C6
:1011D4001DF9069B9B6CB3F1FF3F12D1069B5B6A22
:1011E400002B13D0069B2433184600F01DFE034643
:1011F400002B0BD0019B002B08D0019B01221A600D
:1012040004E0069B9B6C5A1C069B9A64012307937B
:1012140001E000230793059B0493049B83F3118847
:10122400079B184609B05DF804FB00BFDC3F0000D3
:1012340000B58BB0039002910192009300230993AF
:10124400039B0893089B002B04D16E4940F25F5026
:1012540001F075FD029B002B08D1089B1B6C002B31
:1012640004D068494FF4AC6001F069FD01F07AF8EC
:101274000346002B07D1019B002B04D0614940F2A7
:10128400635001F05CFDFFF78DFB089B9B6B002B0B
:1012940049D0089BDB6807930299089800F020F96D
:1012A400009B002B23D1089B9B6B5A1E089B9A63BF
:1012B400089B1B68002B04D101F05EF90246089BD1
:1012C4005A60089B1B69002B29D0089B10331846D1
:1012D40000F0AAFD0346012B21D14B4B4FF0805265
:1012E4005A6040BFBFF34F8FBFF36F8F17E0089B67
:1012F400079ADA60089B5B6A002B10D0089B2433A2
:10130400184600F091FD0346002B08D03E4B4FF0E9
:1013140080525A6040BFBFF34F8FBFF36F8FFFF708
:1013240067FB012369E0019B002B03D1FFF760FBFE
:10133400002362E0099B002B05D105AB184600F0A1
:10134400D3FD01230993FFF753FB00F007FBFFF7DD
:1013540029FB089B5B6CB3F1FF3F02D1089B002281
:101364005A64089B9B6CB3F1FF3F02D1089B002297
:101374009A64FFF73DFB01AA05AB1146184600F03D
:10138400D1FD0346002B32D1089800F019F9034629
:10139400002B26D0089B1B68002B08D1FFF702FB0B
:1013A400089B5B68184600F0F7FFFFF721FB089BDA
:1013B4002433019A1146184600F0B0FC089800F056
:1013C400B4F800F0F7FA0346002B7FF45CAF0E4B41
:1013D4004FF080525A6040BFBFF34F8FBFF36F8FFF
:1013E40051E7089800F0A1F800F0E4FA4BE70898F8
:1013F40000F09BF800F0DEFA002318460BB05DF80D
:1014040004FB00BFDC3F000000ED00E000B587B046
:1014140003900291019200230593039B1B6C002B04
:101424000DD1039B1B68002B50D1039B5B681846AE
:1014340001F028F80590039B00225A6046E0019BC6
:10144400002B19D1039B9868039B1B6C1A460299C5
:1014540002F09AFC039B9A68039B1B6C1A44039B3F
:101464009A60039B9A68039B5B689A422ED3039B02
:101474001A68039B9A6029E0039BD868039B1B6C42
:101484001A46029902F080FC039BDA68039B1B6CEA
:101494005B421A44039BDA60039BDA68039B1B6874
:1014A4009A4207D2039B5A68039B1B6C5B421A4403
:1014B400039BDA60019B022B08D1039B9B6B002BDF
:1014C40004D0039B9B6B5A1E039B9A63039B9B6BE9
:1014D4005A1C039B9A63059B184607B05DF804FBEE
:1014E40000B583B001900091019B1B6C002B18D0B8
:1014F400019BDA68019B1B6C1A44019BDA60019B17
:10150400DA68019B5B689A4203D3019B1A68019BCA
:10151400DA60019BD968019B1B6C1A46009802F0A3
:1015240033FC00BF03B05DF804FB00B583B0019049
:10153400FFF738FA12E0019B5B6A002B13D0019B82
:101544002433184600F070FC0346002B01D000F051
:101554003FFD019B9B6C5A1E019B9A64019B9B6CF3
:10156400002BE8DC00E000BF019B4FF0FF329A64DF
:10157400FFF73EFAFFF716FA12E0019B1B69002BF6
:1015840013D0019B1033184600F04EFC0346002B89
:1015940001D000F01DFD019B5B6C5A1E019B5A6437
:1015A400019B5B6C002BE8DC00E000BF019B4FF06B
:1015B400FF325A64FFF71CFA00BF03B05DF804FB66
:1015C40000B585B00190FFF7EDF9019B9B6B002BF3
:1015D40002D10123039301E000230393FFF708FAE8
:1015E400039B184605B05DF804FB00B585B0019077
:1015F400FFF7D8F9019B9A6B019BDB6B9A4202D1EE
:101604000123039301E000230393FFF7F1F9039B04
:10161400184605B05DF804FB84B0019000910023E6
:10162400039314E00D4A039B52F83330002B0BD183
:101634000A49039B009A41F83320084A039BDB00C4
:101644001344019A5A6005E0039B01330393039BFF
:10165400012BE7D900BF04B0704700BF1C10002065
:1016640000B585B001900091019B0393FFF79AF9AF
:10167400039B5B6CB3F1FF3F02D1039B00225A64CE
:10168400039B9B6CB3F1FF3F02D1039B00229A643E
:10169400FFF7AEF9039B9B6B002B05D1039B24330F
:1016A4000099184600F084FB0398FFF73EFF00BF43
:1016B40005B05DF804FB000000B58BB00590049103
:1016C40002931346ADF80E30059B002B04D1534909
:1016D40040F22D2001F033FB0C9B022B04D94F491F
:1016E40040F22E2001F02BFBBDF80E300E99184667
:1016F40000F0D0FD0890089B002B71D0089B1A6B5A
:10170400BDF80E3003F18043013B9B001344079363
:10171400079B23F007030793079B03F00703002BA2
:1017240004D03E494FF4177001F009FBBDF80E30A8
:1017340000930F9B0C9A0499089800F0A9FC029A54
:1017440005990798FFF770F80246089B1A600D9BED
:10175400002B02D00D9B089A1A60FFF723F9304B37
:101764001B6801332E4A13602E4B1B68002B09D1D2
:101774002C4A089B13602A4B1B68012B0FD100F0E5
:10178400DBFC0CE0284B1B68002B08D1254B1B68A5
:10179400DA6A0C9B9A4202D8224A089B1360234BB4
:1017A4001B680133214A1360089BDB6A01229A40BB
:1017B4001F4B1B6813431E4A1360089BDA6A1346C7
:1017C4009B0013449B001B4A1A44089B043319468C
:1017D4001046FEF72AFF01230993FFF709F902E0F7
:1017E4004FF0FF330993099B012B12D10E4B1B6859
:1017F400002B0ED00B4B1B68DA6A0C9B9A4208D262
:101804000D4B4FF080525A6040BFBFF34F8FBFF370
:101814006F8F099B18460BB05DF804FB3440000041
:10182400E01000202C100020EC100020FC10002000
:10183400E81000203010002000ED00E000B585B075
:10184400019000230393019B002B2AD01D4B1B689E
:10185400002B04D01C4940F2A33001F070FA00F0D0
:101864007DF81A4B1A68019B13440293184B1B68AA
:1018740004331846FEF72CFF0346002B0BD1144B00
:101884001B68DB6A012202FA03F3DA43114B1B687B
:101894001340104A1360029800F0C6FC00F08AF866
:1018A4000390039B002B08D10B4B4FF080525A60DE
:1018B40040BFBFF34F8FBFF36F8F00BF05B05DF81C
:1018C40004FB00BF0011002034400000E41000209D
:1018D4002C100020E810002000ED00E000B587B0D7
:1018E4000023039300230293164B019300230093D8
:1018F40000233C2214491548FFF7DEFE0590059BA2
:10190400012B02D100F048FE0590059B012B0DD15F
:1019140040230493049B83F311880D4B01221A6026
:101924000C4B00221A60FEF7C9FF07E0059B002B51
:1019340004D109494FF4CA6001F001FA00BF07B0AD
:101944005DF804FBDC1000208C400000E51F000063
:10195400EC100020E410002034400000034B1B680E
:101964000133024A136000BF704700BF001100201A
:1019740082B00C4B1B68DB6A002B02D0002301935E
:101984000CE0094B1B68012B02D90023019305E0ED
:10199400064B1A68064B1B68D31A0193019B184621
:1019A40002B070472C1000203010002000000020EE
:1019B400E410002000B583B0002301933B4B1B6867
:1019C400002B04D13A4940F28D6001F0B8F9FEF7DA
:1019D400E9FF364B1B68013B344A1360334B1B68E9
:1019E400002B5CD1334B1B68002B58D02EE0324BBC
:1019F400DB68DB680093009B18331846FEF768FE2B
:101A0400009B04331846FEF763FE009BDB6A012249
:101A14009A402A4B1B681343284A1360009BDA6AD6
:101A240013469B0013449B00254A1A44009B04332D
:101A340019461046FEF7F9FD009BDA6A214B1B6834
:101A4400DB6A9A4202D3204B01221A601A4B1B68AC
:101A5400002BCCD11D4B1B68002B11D00CE000F0E7
:101A640063F80346002B02D0174B01221A60174B70
:101A74001B68013B154A1360144B1B68002BEED105
:101A8400114B1B68012B0AD101230193104B4FF01A
:101A940080525A6040BFBFF34F8FBFF36F8FFEF782
:101AA400A7FF019B184603B05DF804FB001100205A
:101AB40034400000E01000209C100020E8100020BA
:101AC400301000202C100020F4100020F010002012
:101AD40000ED00E082B0034B1B680193019B1846A4
:101AE40002B07047E410002000B583B001900B4BA6
:101AF4001A68019B1A440A4B1B689A4204D9094983
:101B04004FF4F16001F01BF9044B1A68019B134474
:101B1400024A136000BF03B05DF804FBE410002028
:101B2400000000203440000000B587B00023059376
:101B3400464B1B68002B78D1454B1B680133444A44
:101B44001360434B1B680493049B002B1AD1414B35
:101B54001B681B68002B04D03F4940F2A77001F0BA
:101B6400EEF83C4B1B6803933C4B1B68394A1360EB
:101B74003A4A039B13603A4B1B680133384A13609B
:101B840000F0D0FB374B1B68049A9A4252D3314B76
:101B94001B681B68002B01D1012300E00023002BEC
:101BA40004D0304B4FF0FF321A6043E0294B1B68DE
:101BB400DB68DB680293029B5B680193049A019BD8
:101BC4009A4203D2274A019B136033E0029B0433F9
:101BD4001846FEF77DFD029B9B6A002B04D0029BF6
:101BE40018331846FEF774FD029BDB6A01229A4003
:101BF4001D4B1B6813431C4A1360029BDA6A13468D
:101C04009B0013449B00194A1A44029B043319464F
:101C14001046FEF70AFD029BDA6A154B1B68DB6A65
:101C24009A42B4D301230593B1E7124B1B680133E5
:101C3400104A1360104B1B68002B01D0012305933D
:101C4400059B184607B05DF804FB00BF0011002097
:101C5400E41000209410002034400000981000206C
:101C6400F810002000000020E810002030100020B0
:101C74002C100020F0100020F410002000B583B0D8
:101C8400204B1B68002B03D01F4B01221A6035E048
:101C94001D4B00221A601D4B1B68B3FA83F3C3F17A
:101CA4001F0301931A49019A13469B0013449B0096
:101CB4000B441B68002B04D1164940F6C60001F002
:101CC4003EF8019A13469B0013449B00104A1344A8
:101CD4000093009B5B685A68009B5A60009B5A689B
:101CE400009B08339A4204D1009B5B685A68009BAE
:101CF4005A60009B5B68DB68074A136000BF03B04F
:101D04005DF804FB00110020F4100020E81000200E
:101D140030100020344000002C10002000B585B0A5
:101D240001900091019B002B04D11C4940F6D8007E
:101D340001F005F81A4B1B68183319460198FEF791
:101D440093FC174B1B6804331846FEF7C1FC03468B
:101D5400002B0BD1124B1B68DB6A012202FA03F33E
:101D6400DA43104B1B6813400E4A1360009BB3F117
:101D7400FF3F07D10A4B1B68043319460A48FEF794
:101D840054FC07E0094B1A68009B1344039303981F
:101D940000F04AFA00BF05B05DF804FB34400000CF
:101DA4002C100020E8100020C8100020E4100020AF
:101DB40000B585B001900091019B002B04D1164918
:101DC40040F6571000F0BBFF144B1B68183319463C
:101DD4000198FEF72AFC114B1B6804331846FEF7E2
:101DE40077FC0346002B0BD10C4B1B68DB6A0122EA
:101DF40002FA03F3DA430A4B1B681340084A1360E0
:101E0400084B1A68009B13440393039800F00CFAE0
:101E140000BF05B05DF804FB344000002C10002026
:101E2400E8100020E410002000B585B00190019B6B
:101E3400DB68DB680293029B002B04D1234940F644
:101E4400921000F07CFF029B18331846FEF740FC0A
:101E54001F4B1B68002B1CD1029B04331846FEF752
:101E640037FC029BDB6A01229A401A4B1B6813431E
:101E7400184A1360029BDA6A13469B0013449B00C2
:101E8400154A1A44029B043319461046FEF7CDFB4B
:101E940005E0029B183319461048FEF7C6FB029B67
:101EA400DA6A0F4B1B68DB6A9A4205D90123039354
:101EB4000C4B01221A6001E00023039300F032FA74
:101EC400039B184605B05DF804FB00BF34400000D6
:101ED40000110020E8100020301000209C10002089
:101EE4002C100020F410002000B583B00190019B59
:101EF400002B04D1084940F6F21000F020FF074BF4
:101F04001A68019B1A60064B1A68019B5A6000BF4D
:101F140003B05DF804FB00BF34400000F81000205B
:101F2400E410002000B585B001900091019B002BC6
:101F340004D1244940F6FC1000F001FF009B002B63
:101F440004D1204940F6FD1000F0F9FEFEF72AFD09
:101F54001D4B1B680293009B1B68B3F1FF3F02D12A
:101F64000023039326E0019B1A68184B1B689A42CE
:101F740007D0019B5A68029B9A4202D8012303931B
:101F840018E0019B5B68029AD21A009B1B689A4274
:101F94000ED2009B1A68019B5968029BCB1A1A4403
:101FA400009B1A600198FFF79FFF0023039301E051
:101FB40001230393FEF71CFD039B184605B05DF84F
:101FC40004FB00BF34400000E4100020F81000209F
:101FD400024B01221A6000BF704700BFF4100020BA
:101FE40000B585B0019000F0E5F8164B1B68012B95
:101FF40008D9154B4FF080525A6040BFBFF34F8F42
:10200400BFF36F8FFFF7B4FC0390039B012BEAD956
:10201400FFF7A4FC0D4B1A680D4B1B689A4204D2BF
:102024000C4940F6AD2000F08AFEFFF7A1FC0390B6
:10203400039B012B02D90398FEF786FEFFF7BAFC37
:10204400D1E700BF3010002000ED00E000000020C8
:10205400E41000203440000082B001238DF80730E2
:10206400094B1B68002B03D000238DF8073006E0D2
:10207400064B1B68002B02D000238DF807309DF817
:102084000730184602B070479C100020F41000205E
:1020940000B587B003900291019200930023059349
:1020A40012E0029A059B13441978039A059B134482
:1020B40034330A461A70029A059B13441B78002B8A
:1020C40006D0059B01330593059B032BE9D900E05A
:1020D40000BF039B002283F83720019B022B01D908
:1020E40002230193039B019ADA62039B019A9A6388
:1020F400039B0022DA63039B04331846FEF78DFA30
:10210400039B18331846FEF788FA039B039A1A6157
:10211400019BC3F10302039B9A61039B039A5A62D6
:10212400039B00221A64039B002283F8442000BF0F
:1021340007B05DF804FB000000B583B000230193F1
:102144000CE0019A13469B0013449B00114A13446C
:102154001846FEF747FA019B01330193019B022BBA
:10216400EFD90D48FEF73EFA0C48FEF73BFA0C484F
:10217400FEF738FA0B48FEF735FA0B48FEF732FA49
:102184000A4B054A1A600A4B044A1A6000BF03B09E
:102194005DF804FB301000206C100020801000203B
:1021A4009C100020B0100020C810002094100020C3
:1021B4009810002000B583B028E0FFF7CFFB174B41
:1021C4001B68002B0CBF01230023DBB20193FFF734
:1021D400F1FB019B002B19D1FEF7E4FB0F4BDB68ED
:1021E400DB680093009B04331846FEF771FA0C4B2E
:1021F4001B68013B0A4A13600A4B1B68013B094AEE
:102204001360FEF7F5FB009800F07CF8054B1B68A3
:10221400002BD2D100BF03B05DF804FBB010002046
:10222400E0100020C410002000B583B00190144BCE
:102234001B68019A5A60134B1B68019A9A4209D28F
:10224400114B1A680E4B1B68043319461046FEF7EF
:102254000BFA10E00D4B1A68094B1B68043319463E
:102264001046FEF701FA0A4B1B68019A9A4202D201
:10227400074A019B136000BF03B05DF804FB00BF75
:102284002C100020E410002098100020941000204E
:102294000000002000B585B003460091ADF806307B
:1022A400009B002B07D1BDF806309B001846FEF7B3
:1022B40045F9034600E0009B0293029B002B0ED0DD
:1022C4004820FEF73BF90390039B002B03D0039BAC
:1022D400029A1A6305E00298FEF774F901E00023FC
:1022E4000393039B002B08D0039B186BBDF80630A7
:1022F4009B001A46A52101F071FD039B184605B009
:102304005DF804FB00B583B00190019B1B6B18467C
:10231400FEF758F90198FEF755F900BF03B05DF8D0
:1023240004FB000082B00D4B1B681B68002B01D11D
:10233400012300E00023002B04D0094B4FF0FF32AF
:102344001A6008E0054B1B68DB68DB680193019B9E
:102354005B68034A136000BF02B07047941000200A
:102364000000002082B00A4B1B68002B02D101231D
:10237400019308E0074B1B68002B02D10223019351
:1023840001E000230193019B184602B0704700BF8F
:10239400EC1000200011002000B585B00190019BD5
:1023A4000393019B002B62D0039BDA6A324B1B68B8
:1023B400DB6A9A425BD2039B9B69002B06DB2E4BA4
:1023C4001B68DB6AC3F10302039B9A61039B59698F
:1023D400039BDA6A13469B0013449B00274A134469
:1023E400994201D1012300E00023002B3AD0039B42
:1023F40004331846FEF76CF90346002B15D1039BF2
:10240400DA6A1E4913469B0013449B000B441B6865
:10241400002B0AD1039BDB6A012202FA03F3DA439D
:10242400174B1B681340164A1360134B1B68DA6A78
:10243400039BDA62039BDB6A01229A40104B1B6800
:1024440013430F4A1360039BDA6A13469B00134439
:102454009B000A4A1A44039B043319461046FEF7AC
:10246400E4F804E0044B1B68DA6A039BDA6200BFF9
:1024740005B05DF804FB00BF2C10002030100020D4
:10248400E810002000B585B00190019B0293002361
:102494000393019B002B62D0334B1B68029A9A4230
:1024A40004D0324940F6885000F049FC029BDB6BB3
:1024B400002B04D12D4940F68A5000F040FC029BC9
:1024C400DB6B5A1E029BDA63029BDA6A029B9B6BEC
:1024D4009A4244D0029BDB6B002B40D1029B043315
:1024E4001846FEF7F5F80346002B15D1029BDA6A6D
:1024F4001F4913469B0013449B000B441B68002B8D
:102504000AD1029BDB6A012202FA03F3DA43194B74
:102514001B681340174A1360029B9A6B029BDA6292
:10252400029BDB6AC3F10302029B9A61029BDB6A92
:1025340001229A400F4B1B6813430E4A1360029BFF
:10254400DA6A13469B0013449B00094A1A44029B0F
:10255400043319461046FEF768F801230393039BDE
:10256400184605B05DF804FB2C1000203440000030
:1025740030100020E8100020064B1B68002B04D00C
:10258400044B1B68DA6B0132DA63024B1B68184692
:10259400704700BF2C10002000B587B000230593BE
:1025A40000F0A2FA0F4B1B68002B0ED000230393FC
:1025B400002302930C4B0193022300930023502227
:1025C4000A490B48FFF778F80590059B002B04D1C6
:1025D40008494FF4877000F0B2FB059B184607B01A
:1025E4005DF804FB341100203811002094400000F1
:1025F4005D2700009C40000000B587B00390029165
:1026040001920093029B002B02D1002305931CE04E
:102614002820FDF793FF0590059B002B15D000F0B3
:1026240063FA059B039A1A60059B029A9A61059BBB
:10263400019ADA61059B009A1A62059B089A5A620C
:10264400059B04331846FDF7E8FF029B002B04D1D9
:1026540004494FF49B7000F072FB059B184607B0C9
:102664005DF804FB9C40000000B58BB00390029120
:102674000192009300230993184B1B68002B27D069
:10268400029B0593019B0693039B0793029B052BD7
:1026940016DCFFF767FE0346022B08D10F4B1868C0
:1026A40005A900230C9AFEF787FC099010E00B4B58
:1026B400186805A900230022FEF77EFC099007E0B4
:1026C400064B186805A90023009AFEF747FD0990F8
:1026D400099B18460BB05DF804FB00BF34110020C1
:1026E40000B587B003900291194B1B68DB68DB6867
:1026F4000593059B04331846FDF7EAFF059BDB6948
:10270400012B1CD1059B9A69039BD118039B029A48
:10271400059800F0ADF80346012B10D10023009377
:102724000023039A00210598FFF79EFF0490049B61
:10273400002B04D107494FF4C87000F000FB059B3F
:102744005B6A0598984700BF07B05DF804FB00BFBB
:102754002C1100209C40000000B585B0019002AB14
:10276400184600F047F80390029B1946039800F0BE
:1027740003F800F0BFF8F2E700B585B001900091CE
:10278400FFF7ECF802AB184600F054F80390029BF4
:10279400002B24D1009B002B0AD1019A039B9A425F
:1027A40006D8FFF707F903990198FFF799FF18E096
:1027B4000E4B1868019A039BD31A1946FEF750FF73
:1027C400FFF7F8F80346002B0BD1094B4FF080526A
:1027D4005A6040BFBFF34F8FBFF36F8F01E0FFF725
:1027E400E9F800BF05B05DF804FB00BF3411002018
:1027F40000ED00E084B001900D4B1B681B68002BBA
:102804000CBF01230023DBB21A46019B1A60019B13
:102814001B68002B05D1064B1B68DB681B68039300
:1028240001E000230393039B184604B0704700BFE4
:102834002C11002000B585B00190FFF74BF90390EF
:102844000A4B1B68039A9A4205D200F0F1F8019BE7
:1028540001221A6002E0019B00221A60034A039BD2
:102864001360039B184605B05DF804FB3C1100207F
:1028740000B587B003900291019200930023059361
:10288400039B029A5A60039B039A1A61029A019B62
:102894009A4212D8019A009BD21A039B9B699A42CE
:1028A40002D3012305931BE0104B1A68039B0433E6
:1028B40019461046FDF7D8FE12E0019A009B9A4291
:1028C40006D2029A009B9A4202D30123059307E0A1
:1028D400074B1A68039B043319461046FDF7C4FEE0
:1028E400059B184607B05DF804FB00BF30110020BB
:1028F4002C11002000B58DB086E0049B002B12DA69
:1029040004AB04330B930B9B002B04D146494FF4C7
:10291400177000F014FA0B9B1B680B9A50680B9A03
:10292400926811469847049B002B6DDB069B0A9323
:102934000A9B5B69002B04D00A9B04331846FDF7FD
:10294400C7FE03AB1846FFF775FF0990049B092BDC
:1029540059D801A252F823F08529000085290000E6
:10296400852900000D2A0000D7290000032A000051
:1029740085290000852900000D2A0000D7290000C0
:10298400059A0A9B9B69D118059B099A0A98FFF737
:102994006FFF0346012B37D10A9B5B6A0A9898475D
:1029A4000A9BDB69012B2FD1059A0A9B9B691A4468
:1029B40000230093002300210A98FFF755FE089096
:1029C400089B002B20D1184940F2962000F0B7F95B
:1029D4001AE0059A0A9B9A610A9B9B69002B04D111
:1029E400114940F2AD2000F0AAF90A9B9A69099BAB
:1029F400D118099B099A0A98FFF73AFF04E00A984C
:102A0400FDF7E0FD00E000BF084B186804A90023AF
:102A14000022FEF70DFC0346002B7FF46EAF00BFCF
:102A24000DB05DF804FB00BF9C4000003411002091
:102A340000B589B03FE0294B1B68DB681B6807932E
:102A4400264B1B68DB68DB680693069B0433184639
:102A5400FDF73EFE069B5B6A06989847069BDB697A
:102A6400012B28D1069B9A69079B13440593059A69
:102A7400079B9A420ED9069B059A5A60069B069AB2
:102A84001A61164B1A68069B043319461046FDF763
:102A9400EBFD10E0002300930023079A0021069821
:102AA400FFF7E2FD0490049B002B04D10C4940F293
:102AB400F22000F044F9094B1B681B68002BBAD1C3
:102AC400064B1B680393074B1B68044A1360054AB3
:102AD400039B136000BF09B05DF804FB2C110020B8
:102AE4009C4000003011002008B5FDF75BFF174B38
:102AF4001B68002B26D11648FDF774FD1548FDF719
:102B040071FD154B124A1A60144B124A1A600022C6
:102B140010212020FEF700FA02460C4B1A600B4BE2
:102B24001B68002B04D10E494FF4447000F007F9E0
:102B3400064B1B68002B05D0044B1B68094918463B
:102B4400FEF76AFDFDF754FF00BF08BD34110020F5
:102B540004110020181100202C1100203011002035
:102B64009C400000F440000000B589B0039002913D
:102B74000192029B9BB2ADF81430019B0693039B18
:102B8400079305AB1A46002144F2010000F050F807
:102B940000BF09B05DF804FB86B003900291019276
:102BA40001238DF817309DF81730204A039B1360DA
:102BB4001E4A029B53601D4A019B9360039B44F28F
:102BC4000102934212D044F20202934222D1019BA9
:102BD400164AD360154BDB681B881A46134B9A615F
:102BE400124BDB685B68114AD36113E0019B0F4A07
:102BF40013610E4B1B699B680C4A53610B4B1B6999
:102C04001B881A46094B9A61084B1B695B68074A83
:102C1400D36100BF72B600BF9DF81730DBB2002B42
:102C2400FAD162B600BF06B0704700BF4011002061
:102C340000B587B0039002910192039B44F2010214
:102C4400934207D044F20202934200D005E0019B74
:102C5400059302E0019B049300BF084B1B6803F03B
:102C64000103002B00D0FFDE019A02990398FFF7BD
:102C740093FF00BF07B05DF804FB00BFF0ED00E078
:102C840072B6034B1B680133014A136000BF7047DF
:102C940060110020054B1B68013B044A1360034B81
:102CA4001B68002B00D162B600BF70476011002082
:102CB40000B583B0019000F025F80346012B03D042
:102CC4000449432000F03BF8FFF7DAFF00BF03B0EC
:102CD4005DF804FBFC40000000B583B003468DF8AA
:102CE400073000F00FF80346012B03D004495120AC
:102CF40000F025F8FFF7CEFF00BF03B05DF804FB3A
:102D0400FC40000084B0EFF305830193019BC3F3FF
:102D140008030393039B002B0DD1EFF3148300935B
:102D2400009B0293029B03F00103002B0CBF0123C1
:102D34000023DBB200E00123184604B0704700B55D
:102D440085B003460091ADF80630BDF80630ADF805
:102D54000830009B039302AB1A46002144F20200A0
:102D6400FFF766FF00BF05B05DF804FB82B0019079
:102D74004FF08042019BC2F8043300BF02B0704799
:102D840082B001904FF08042019BC2F8083300BF2B
:102D940002B0704782B003468DF807309DF80730C3
:102DA40003F1804301221A6000BF02B0704784B06F
:102DB4000346ADF80630BDF8063003F18043002227
:102DC4001A60BDF8063003F180431B680393039B2C
:102DD40000BF04B0704782B00346ADF80630BDF8BA
:102DE400063003F180431B68002B14BF012300232A
:102DF400DBB2184602B0704782B003468DF8073044
:102E04004FF080429DF8073003F00303C2F81835F1
:102E140000BF02B07047000082B003468DF807304F
:102E24000A4A9DF907305B0952F823209DF80730C0
:102E340003F01F03012101FA03F31340002B14BF15
:102E440001230023DBB2184602B0704700E100E022
:102E540008B50020FFF7E0FF034683F00103DBB26F
:102E6400002B03D00721002000F05AF900BF08BD51
:102E740008B54FF48270FFF79AFF0220FFF776FF40
:102E84000820FFF787FF00BF08BD000000B583B02E
:102E9400002301930F4B1B78002B02D08523019351
:102EA40013E00C4B00229A600A4B00225A60094B33
:102EB40000221A61074B0022DA60FFF7C9FF0120E4
:102EC400FFF79AFF034B01221A70019B184603B0C7
:102ED4005DF804FB6411002084B001900091019B13
:102EE4001B68039306E0039A009B9A420DD0039B50
:102EF4001B680393039B002BF5D1019B1A68009B6D
:102F04001A60019B009A1A6000E000BF04B0704789
:102F140084B00190019B1B680393039B002B03D097
:102F2400039B1A68019B1A60039B184604B0704700
:102F340000B583B00190224B1B78002B03D12149AB
:102F4400FB20FFF7FCFE1E4B9B78DBB2002B12D05C
:102F5400019B002B03D0019B5B6801209847002054
:102F6400FFF7A6FE164BDB680133154AD360002039
:102F7400FFF7B2FE17E00020FFF79AFE019B002B3B
:102F840003D001991048FFF7A7FF0D4BDB68002B16
:102F940001D1FFF76DFF0A4BDB680133084AD360A8
:102FA4000020FFF799FE064BDB68002B04D105498E
:102FB40040F21710FFF7C3FE00BF03B05DF804FB37
:102FC40064110020604100007411002000B585B038
:102FD40003468DF807309DF80730002B02D10C4BC7
:102FE400039301E00B4B03930398FFF791FF0290C7
:102FF400029B002B06D0029B5B689DF807201046BD
:103004009847F1E700BF00BF05B05DF804FB00BFBF
:103014006C1100207411002008B54FF48070FFF784
:10302400DAFE0346002B0CD04FF48070FFF7BFFE8E
:103034000120FFF7A5FE0E4B01225A700020FFF776
:10304400C5FF4FF48270FFF7C6FE0346002B0CD079
:103054004FF48270FFF7ABFE0220FFF791FE044BA2
:1030640001229A700120FFF7B1FF00BF08BD00BF25
:103074006411002082B003468DF8073007499DF99A
:1030840007305B099DF8072002F01F02012000FAB7
:1030940002F241F8232000BF02B0704700E100E0D3
:1030A40082B003468DF8073008499DF907305B0963
:1030B4009DF8072002F01F02012000FA02F260339B
:1030C40041F8232000BF02B0704700BF00E100E0D8
:1030D40082B0034600918DF807309DF90730002B2C
:1030E4000CDA0D499DF8073003F00F03043B009AF6
:1030F400D2B25201D2B20B441A7609E007499DF9C3
:103104000730009AD2B25201D2B20B4483F80023A2
:1031140000BF02B0704700BF00ED00E000E100E036
:1031240000B583B003460A468DF8073013468DF880
:1031340006309DF80630072B04D90D494FF49270E0
:10314400FFF7FDFD9DF806209DF90730114618464E
:10315400FFF7BEFF9DF907301846FFF7A1FF9DF961
:1031640007301846FFF786FF00BF03B05DF804FB85
:10317400C441000000B583B00346ADF80630BDF885
:103184000630184600F026F803461B68012B0CBFD6
:1031940001230023DBB2184603B05DF804FB00B53D
:1031A40085B00346ADF80630BDF80630184600F089
:1031B40011F803461A4600231360BDF8063018467A
:1031C40000F008F803461B680393039B00BF05B097
:1031D4005DF804FB82B00346ADF80630BDF8063056
:1031E40003F1804303F5C043184602B07047000062
:1031F40082B00190034BD3F80423019B134018467B
:1032040002B070470060004082B00190054A019B03
:1032140003F5A27352F823301B0A03F01F03184668
:1032240002B070470060004082B00190064A019BE2
:1032340003F5A27352F823301B0C03F00303DBB233
:10324400184602B0704700BF0060004000B583B06C
:103254000190019B1B681F2B04D905494FF4E870AA
:10326400FFF76DFD4FF0A043184603B05DF804FB73
:103274002842000000B585B001900B468DF803305C
:1032840001AB1846FFF7E2FF0390019A0199039BF3
:1032940001F5E07153F8213023F44031039B02F52A
:1032A400E07243F82210019A0199039B01F5E07141
:1032B40053F821309DF8031009041943039B02F5C8
:1032C400E07243F8221000BF05B05DF804FB00B5BE
:1032D40085B0019001AB1846FFF7B8FF0390019A3F
:1032E400039B02F5E07253F822301B0C03F0030336
:1032F400DBB2184605B05DF804FB82B00190019B77
:10330400D3F81035184602B07047000000B587B0F6
:103314000390029101924FF0A0430493039A029BFD
:103324001344012B04D912494FF43A70FFF707FDF7
:10333400039B059311E0059B9B0006AA134453F8D5
:10334400083C1846FFF7D9FF0246019B1A60019B0F
:1033540004330193059B01330593039A029B1A449A
:10336400059B9A42E7D800BF07B05DF804FB00BF95
:103374002842000084B001900091009B0393019BBC
:10338400DB080293019B03F0070301930122019BD5
:1033940002FA03F30399029A0A4412781340184676
:1033A40004B0704784B001900091009B0393019B8B
:1033B400DB080293019B03F007030193039A029B2A
:1033C40013440399029A0A44127851B20120019AD3
:1033D40000FA02F252B20A4352B2D2B21A7000BFD9
:1033E40004B0704782B00190044A019B1344303307
:1033F40093F90030184602B0704700BF78110020DE
:1034040082B00190034A019B52F82330184602B05F
:10341400704700BF7811002000B595B000231393C6
:10342400002303934FF48073ADF8463001231093C7
:103434000023129321E0BDF846301846FFF79AFEA8
:103444000346002B0ED01098FFF7D2FE0346002B44
:1034540008D0BDF846301846FFF7A1FE139A109B1A
:1034640013431393109B5B001093BDF84630043351
:10347400ADF84630129B01331293129B072BDAD915
:103484004FF4BE70FFF776FE0346002B0DD04FF4C9
:10349400BE70FFF784FE139B43F00043139303AB0A
:1034A4001A4601210020FFF731FF139BDBB2002BEA
:1034B40029D0012310930023129321E0109A139B27
:1034C4001340002B16D01298FFF79EFE0D90129811
:1034D400FFF7AAFE03468DF833301298FFF790FFEA
:1034E4000B900B9B002B05D09DF833200B9B1146B2
:1034F4000D989847109B5B001093129B0133129315
:10350400129B072BDAD9139B002B80F2EE80002349
:103514008DF83B300023029300230F930AE00F9BA6
:103524009B0014AA13444FF0FF3243F84C2C0F9B1A
:1035340001330F930F9B002BF1D000238DF83B3008
:103544000023129378E06B4A129B1344503393F98F
:1035540000308DF82B309DF82B3023F0C0030993F5
:10356400644A129B1344503393F90030B3F1FF3F84
:103574005FD001AB19460998FFF7FCFE0346002B08
:1035840057D09DF82B309B098DF823300998FFF70D
:1035940029FF03461846FFF733FF0790079B002BCC
:1035A40003D19DF82330032B43D19DF82330032B03
:1035B40004D102AB19460998FFF7F4FE0998FFF706
:1035C40086FE03468DF81B3003AB19460998FFF7B6
:1035D400D1FE0590059B002B03D09DF81B30022BD8
:1035E40006D0059B002B24D19DF81B30032B20D142
:1035F4009DF82330032B13D19DF81B30022B01D1EE
:10360400032300E002238DF813309DF8133019468C
:103614000998FFF72FFE9DF83B3001338DF83B30BE
:10362400079B002B05D09DF82320079B1146099882
:103634009847129B01331293129B032B83D99DF855
:103644003B30002B4CD001238DF83A306B461A46A0
:1036540001210020FFF75AFE00230F9314E00F9B73
:103664009B0014AA134453F8502C0F9B9B0014A9DD
:103674000B4453F8443C9A4203D000238DF83A306B
:1036840005E00F9B01330F930F9B002BE7D09DF8B0
:103694003A30002B03D000238DF83B3020E0002388
:1036A4000F931AE00F9B9B0014AA134453F8502C59
:1036B4000F9B9B0014A90B4443F8442C0F9B9B00C5
:1036C40014AA134453F8482C0F9B9B0014A90B44D1
:1036D40043F84C2C0F9B01330F930F9B002BE1D02D
:1036E4009DF83B30002B7FF428AF00BF15B05DF888
:1036F40004FB00BF7811002000B583B001900020C6
:10370400FCF7E8FEC820FEF799F8F8E700B583B0A7
:1037140001900120FCF7DEFE00BF03B05DF804FB5E
:1037240010B586B0FFF7B2FB0590059B0493049B8C
:10373400002B04D01B4A6B210498FFF715FAFCF701
:10374400E3FE0023039300230293174B0193022308
:10375400009300234FF4827214491548FDF7ACFF1F
:10376400144B0093002301224FF47A711248FEF7A0
:1037740043FF0246114B1A60104B1C68FEF7AAF96E
:10378400024600230093002301212046FEF76CFF2C
:103794000B4A0B4B1B6943F004031361FEF79EF8BD
:1037A400FEE700BFC4420000D01100202443000003
:1037B400FD360000113700002C430000D411002016
:1037C40000ED00E0BFF34F8F0549054BDB6803F4C0
:1037D400E062044B1343CB60BFF34F8F00BFFDE7A0
:1037E40000ED00E00400FA05024B034A1A6000BF32
:1037F400704700BF040000200090D00308B500F01B
:103804005BF90346002B06D09A4A9B4B1B681B0AA4
:1038140003F01F03136000F07BF90346002B02D072
:10382400964B974A1A6000F08FF90346002B06D096
:10383400944A954B1B685B0B03F00703136000F07D
:10384400AFF90346002B05D0904A904BDB6823F078
:103854008073D36000F0C0F90346002B0ED04FF004
:1038640080430022C3F80C214FF080430022C3F8A8
:1038740010214FF080430022C3F8382500F0D8F916
:103884000346002B02D0824B03221A6000F0ECF9AD
:103894000346002B0BD07F4B05221A607E4B01227E
:1038A4001A607E4B00221A607D4B3F221A6000F0A2
:1038B400F7F90346002B76D07A4A4FF08053D3F8B9
:1038C4000434C2F82035774A4FF08053D3F80834D3
:1038D400C2F82435734A4FF08053D3F80C34C2F83D
:1038E4002835704A4FF08053D3F81034C2F82C3581
:1038F4006C4A4FF08053D3F81434C2F83035694A17
:103904004FF08053D3F81834C2F83435654A4FF079
:103914008053D3F81C34C2F84035624A4FF08053C8
:10392400D3F82034C2F844355E4A4FF08053D3F8BC
:103934002434C2F848355B4A4FF08053D3F8283416
:10394400C2F84C35574A4FF08053D3F82C34C2F8A0
:103954005035544A4FF08053D3F83034C2F85435BC
:10396400504A4FF08053D3F83434C2F860354D4A8E
:103974004FF08053D3F83834C2F86435494A4FF0D5
:103984008053D3F83C34C2F86835464A4FF080532C
:10399400D3F84034C2F86C35424A4FF08053D3F820
:1039A4004434C2F8703500F097F90346002B05D073
:1039B4003D4A3E4B1B6803F04F03136000F0B8F917
:1039C4000346002B0DD04FF08043D3F8003403F0AE
:1039D4000103002B05D04FF080436FF00102C3F8C0
:1039E4000024334A324BD3F8883043F47003C2F8CE
:1039F4008830BFF34F8FBFF36F8F4FF01023D3F88E
:103A04000032002B05DB4FF01023D3F80432002BD7
:103A14002BDA284B0122C3F8042500BF254BD3F829
:103A24000034002BFAD04FF010231522C3F80022E3
:103A340000BF204BD3F80034002BFAD04FF01023F2
:103A44001522C3F8042200BF1A4BD3F80034002B0C
:103A5400FAD0184B0022C3F8042500BF154BD3F845
:103A64000034002BFAD0FFF7ADFEFFF7BDFE00BF18
:103A740008BD00BF403501402403001074C0074056
:103A84000DF0ADBA3C05004044020010F0ED00E03A
:103A9400A0050040105600408856004018560040CB
:103AA4001456004000C00040E40E004058020010CC
:103AB40000ED00E000E00140124B1B68DBB2062B76
:103AC4001DD1114B1B6803F00F03002B17D10F4BB3
:103AD4001B6803F0F003302B01D1012310E00B4BE2
:103AE4001B6803F0F003402B01D1012308E0074BCE
:103AF4001B6803F0F003502B01D1012300E00023E5
:103B040018467047E00F00F0E40F00F0E80F00F0F3
:103B14000A4B1B68DBB2062B0DD1094B1B6803F063
:103B24000F03002B07D1074B1B6803F0F003302B66
:103B340001D1012300E0002318467047E00F00F094
:103B4400E40F00F0E80F00F0124B1B68DBB2062B09
:103B54001DD1114B1B6803F00F03002B17D10F4B22
:103B64001B6803F0F003302B01D1012310E00B4B51
:103B74001B6803F0F003402B01D1012308E0074B3D
:103B84001B6803F0F003502B01D1012300E0002354
:103B940018467047E00F00F0E40F00F0E80F00F063
:103BA4000A4B1B68DBB2062B0DD1094B1B6803F0D3
:103BB4000F03002B07D1074B1B6803F0F003302BD6
:103BC40001D1012300E0002318467047E00F00F004
:103BD400E40F00F0E80F00F0124B1B68DBB2062B79
:103BE4001DD1114B1B6803F00F03002B17D10F4B92
:103BF4001B6803F0F003302B01D1012310E00B4BC1
:103C04001B6803F0F003402B01D1012308E0074BAC
:103C14001B6803F0F003502B01D1012300E00023C3
:103C240018467047E00F00F0E40F00F0E80F00F0D2
:103C34000A4B1B68DBB2062B0DD1094B1B6803F042
:103C44000F03002B07D1074B1B6803F0F003302B45
:103C540001D1012300E0002318467047E00F00F073
:103C6400E40F00F0E80F00F00A4B1B68DBB2062BF0
:103C74000DD1094B1B6803F00F03002B07D1074B31
:103C84001B6803F0F003302B01D1012300E0002373
:103C940018467047E00F00F0E40F00F0E80F00F062
:103CA4000A4B1B68DBB2062B0DD1094B1B6803F0D2
:103CB4000F03002B07D1074B1B6803F0F003502BB5
:103CC40001D1012300E0002318467047E00F00F003
:103CD400E40F00F0E80F00F0124B1B68DBB2062B78
:103CE4001DD1114B1B6803F00F03002B17D10F4B91
:103CF4001B6803F0F003302B01D1012310E00B4BC0
:103D04001B6803F0F003402B01D1012308E0074BAB
:103D14001B6803F0F003502B01D1012300E00023C2
:103D240018467047E00F00F0E40F00F0E80F00F0D1
:103D3400124B1B68DBB2062B1DD1114B1B6803F021
:103D44000F03002B17D10F4B1B6803F0F003302B2C
:103D540001D1012310E00B4B1B6803F0F003402B4F
:103D640001D1012308E0074B1B6803F0F003502B3B
:103D740001D1012300E0002318467047E00F00F052
:103D8400E40F00F0E80F00F0844640EA010313F06A
:103D9400030F18D18446202A0BD32DE9F007B1E88C
:103DA400F807A0E8F807A2F12002202AF7D2BDE81C
:103DB400F007042A07D351F8043B40F8043BA2F16E
:103DC4000402042AF7D2002A05D011F8013B00F8B6
:103DD400013B013AF9D16046704700BF8446002A8E
:103DE4002DD010F0030F04D000F8011B013A26D0A7
:103DF400F7E7C9B241EA012141EA0141202A12D37D
:103E0400A2F120022DE9F0030B460C460D460E46A6
:103E14000F4688468946A0E8FA03203AFBD2BDE85B
:103E2400F00320320BD0042A05D340F8041B043AD3
:103E340005D0042AF9D200F8011B013AFBD16046EF
:043E4400704700BF04
:103E48002E2E2F2E2E2F2E2E2F2E2E2F2E2E2F2E85
:103E58002E2F636F6D706F6E656E74732F64726949
:103E6800766572735F6E72662F68616C2F6E72660C
:103E78005F6770696F2E6800433A5C4E6F726469C1
:103E88006353656D69636F6E647563746F72735C99
:103E980053444B5C6E5246355F53444B5F31342E6E
:103EA800312E305F316464613930375C636F6D7017
:103EB8006F6E656E74735C626F617264735C626F5F
:103EC800617264732E63000011121314433A5C4E3E
:103ED8006F7264696353656D69636F6E647563744B
:103EE8006F72735C53444B5C6E5246355F53444B60
:103EF8005F31342E312E305F316464613930375C84
:103F080065787465726E616C5C6672656572746FF3
:103F1800735C736F757263655C706F727461626CE9
:103F2800655C4D656D4D616E675C686561705F319C
:103F38002E630000433A5C4E6F7264696353656D8B
:103F480069636F6E647563746F72735C53444B5C22
:103F58006E5246355F53444B5F31342E312E305FFD
:103F6800316464613930375C65787465726E616C90
:103F78005C6672656572746F735C706F727461628F
:103F88006C655C434D5349535C6E726635325C70A8
:103F98006F72745F636D7369732E63002E2E2F2EFC
:103FA8002E2F2E2E2F2E2E2F2E2E2F2E2E2F636FAE
:103FB8006D706F6E656E74732F6472697665727357
:103FC8005F6E72662F68616C2F6E72665F727463C3
:103FD8002E680000433A5C4E6F7264696353656DE6
:103FE80069636F6E647563746F72735C53444B5C82
:103FF8006E5246355F53444B5F31342E312E305F5D
:10400800316464613930375C65787465726E616CEF
:104018005C6672656572746F735C736F75726365E5
:104028005C71756575652E6300000000433A5C4E4F
:104038006F7264696353656D69636F6E64756374E9
:104048006F72735C53444B5C6E5246355F53444BFE
:104058005F31342E312E305F316464613930375C22
:1040680065787465726E616C5C6672656572746F92
:10407800735C736F757263655C7461736B732E63C5
:104088000000000049444C4500000000546D7220B7
:1040980053766300433A5C4E6F7264696353656D8F
:1040A80069636F6E647563746F72735C53444B5CC1
:1040B8006E5246355F53444B5F31342E312E305F9C
:1040C800316464613930375C65787465726E616C2F
:1040D8005C6672656572746F735C736F7572636525
:1040E8005C74696D6572732E63000000546D7251C3
:1040F80000000000433A5C4E6F7264696353656D5B
:1041080069636F6E647563746F72735C53444B5C60
:104118006E5246355F53444B5F31342E312E305F3B
:10412800316464613930375C636F6D706F6E656ED2
:1041380074735C6C69627261726965735C757469C9
:104148006C5C6170705F7574696C5F706C617466CB
:104158006F726D2E63000000433A5C4E6F726469A3
:104168006353656D69636F6E647563746F72735CB6
:1041780053444B5C6E5246355F53444B5F31342E8B
:10418800312E305F316464613930375C636F6D7034
:104198006F6E656E74735C647269766572735F6E58
:1041A80072665C636C6F636B5C6E72665F6472767A
:1041B8005F636C6F636B2E6300000000433A5C4ED4
:1041C8006F7264696353656D69636F6E6475637458
:1041D8006F72735C53444B5C6E5246355F53444B6D
:1041E8005F31342E312E305F316464613930375C91
:1041F800636F6D706F6E656E74735C6472697665FB
:1042080072735F6E72665C636F6D6D6F6E5C6E72FB
:10421800665F6472765F636F6D6D6F6E2E6300000C
:104228002E2E2F2E2E2F2E2E2F2E2E2F2E2E2F2EA1
:104238002E2F636F6D706F6E656E74732F64726965
:10424800766572735F6E72662F68616C2F6E726628
:104258005F6770696F2E6800433A5C4E6F726469DD
:104268006353656D69636F6E647563746F72735CB5
:1042780053444B5C6E5246355F53444B5F31342E8A
:10428800312E305F316464613930375C636F6D7033
:104298006F6E656E74735C647269766572735F6E57
:1042A80072665C6770696F74655C6E72665F647273
:1042B800765F6770696F74652E630000433A5C4EE1
:1042C8006F7264696353656D69636F6E6475637457
:1042D8006F72735C53444B5C6E5246355F53444B6C
:1042E8005F31342E312E305F316464613930375C90
:1042F8006578616D706C65735C706572697068650E
:1043080072616C5C626C696E6B795F66726565720E
:10431800746F735C6D61696E2E6300004C454430A8
:09432800000000004C4544310086
:08433400FFFFFFFF0090D00322
:040000030000023DBA
:00000001FF
